:100000000C9451040C9495040C94B0040C94950435
:100010000C9495040C9495040C9495040C949504FC
:100020000C9495040C9495040C94AA210C949504BA
:100030000C9495040C9495040C9495040C949504DC
:100040000C9495040C9495040C9495040C949504CC
:100050000C949504921095109A10A110A610AB1054
:10006000B010B510BA10BF10C410C910CD10D01008
:10007000D310D610DD10DD10DD10DD108F178F17B7
:10008000C117C1170E184219421942192C18C1186C
:10009000D218D2183219421942193B19EC19EC192D
:1000A000FE19FE19F519FE19FE19FE19EC19EC19C5
:1000B000FA19FE19FE19FA193A783A003A623A002A
:1000C0005B75726C3D0102E0760103E05D5B696D7A
:1000D000675D0102E0760103E05B2F696D675D5BA0
:1000E0002F75726C5D002A2A2A4120452053205426
:1000F0002048204520542049204320532A2A2A0002
:10010000636420643A2F6B6579626F6172645F7318
:10011000747566662F676974732F716D6B5F66699E
:10012000726D776172650068747470733A2F2F78FE
:100130006B63642E636F6D2F3932372F00E000023E
:1001400051E600000000000000620000006300585B
:10015000000000E40000004D000000E1001D001B55
:100160000006001900050059005A005B0000003825
:1001700000E50000004A00000003510400160007DB
:100180000009000A005C005D005E00570033003487
:10019000000000280049002B0014001A0008001578
:1001A0000017005F0060006100560013002F003050
:1001B000003100000035001E001F00200021002239
:1001C000004C0046005400550027002D002E000072
:1001D000002A00290000003A003B003C003D0000DE
:1001E0000000000000000000004200430044004501
:1001F000003E0023001C000B0011002C0050005199
:100200000052004F003F00240018000D0010004174
:1002100000260012000F003700B200AC000000AE54
:1002200000AB00400025000C000E0036000100016C
:1002300000010000000000000001000000010001BA
:1002400000000001000000010000000100010001A9
:100250000001000100345D01000100010000000107
:100260000001000000010000000100010001000188
:100270000001000100010001000100010001000176
:100280000000000100010001000100010001000167
:100290000001000100010001000100010001000156
:1002A0000001000000010001000100010001000147
:1002B0000001000100010001000100010001000037
:1002C0000001000100000001000100010001000028
:1002D000000000000000000000010001000100011A
:1002E0000001000100010001000100010001000106
:1002F00000010001000100010001000100010001F6
:1003000000010001000100010001000100000001E6
:1003100000010001000100010001000100010001D5
:1003200000E20000000000000001000000010001E8
:10033000000000010000004B000000390001003502
:100340005D0100285D345D01000100010000000135
:1003500000010000004E00000001002B5D295D013E
:100360000001000100010001000100010001000185
:100370000000000100015301002A5D01000100019D
:10038000002F5D01000100010001000100010001DA
:1003900000010000002C5D010001002D5D01000145
:1003A000000100530001000100010001002E5D006A
:1003B0000001000100000001000100010001000037
:1003C0000000000000000000000100010001000129
:1003D0000001000100010001000100010001000115
:1003E00000010001000100010001000100335D0176
:1003F000000100305D0100325D0100AA000000A88C
:1004000000A9000100010001000100315D000000B1
:1004100000000000000000000000000000000000DC
:1004200000000000000000000000000000000000CC
:1004300000000000000000000000000000000000BC
:100440000000000000000000000100C45CC65CC8A1
:100450005CCA5C000000000000000000000000001A
:1004600000000000000000C25CC35CC55CC75CC942
:100470005C00000000000000000000000000000020
:100480000000000000D65C0000000000000000003A
:10049000000000000000000000000000000000005C
:1004A000000000000000000000000000000000004C
:1004B000000000000000000000000000000000003C
:1004C000000000000000000000000000000000002C
:1004D000000000000000000000000000000000001C
:1004E0000000000000000000000000E55C0000DEED
:1004F0005C005C0000000000000000000000000044
:1005000000000000002A2B2800000000000000006E
:10051000000000000000000029000000002C1E3434
:1005200020212224342627252E362D3738271E1F3A
:10053000202122232425263333362E37381F040565
:10054000060708090A0B0C0D0E0F101112131415D3
:10055000161718191A1B1C1D2F3130232D350405B1
:10056000060708090A0B0C0D0E0F101112131415B3
:10057000161718191A1B1C1D2F3130354C0000009E
:10058000000000000000000000000000000000006B
:10059000007E0F00D4FFFFFFC70000007864321414
:1005A000643214783C1E1E140A05222325262829AD
:1005B0002A2C2D2F3032333536383A3B3D3E4042DF
:1005C000434547494A4C4E5051535557595A5C5E22
:1005D0006062646668696B6D6F71737577797B7D36
:1005E0007F81838587898A8C8E90929496989A9C35
:1005F0009E9FA1A3A5A7A8AAACAEAFB1B3B4B6B84D
:10060000B9BBBCBEBFC1C2C3C5C6C7C9CACBCCCDAE
:10061000CED0D1D2D2D3D4D5D6D7D7D8D9D9DADA89
:10062000DBDBDBDCDCDCDCDCDDDDDDDDDCDCDCDC09
:10063000DCDBDBDBDADAD9D9D8D7D7D6D5D4D3D23D
:10064000D2D1D0CECDCCCBCAC9C7C6C5C3C2C1BF1B
:10065000BEBCBBB9B8B6B4B3B1AFAEACAAA8A7A57F
:10066000A3A19F9E9C9A98969492908E8C8A89873B
:100670008583817F7D7B79777573716F6D6B696819
:10068000666462605E5C5A5957555351504E4C4AED
:100690004947454342403E3D3B3A38363533323098
:1006A0002F2D2C2A292826252322000101010101B2
:1006B000010101010202020202020202020303031B
:1006C00003030303030404040404040405050505EB
:1006D00005060606060607070707070808080809AB
:1006E0000909090A0A0A0B0B0B0C0C0C0D0D0D0E57
:1006F0000E0E0F0F0F1010111111121213131414EC
:10070000151516161717181819191A1A1B1B1C1D60
:100710001D1E1E1F202021222223242425262627B9
:100720002829292A2B2C2D2D2E2F303132323334EB
:1007300035363738393A3B3C3D3E3F4041424344F1
:1007400045464748494A4C4D4E4F505153545556D3
:1007500058595A5B5D5E5F616264656668696B6C7F
:100760006D6F7072737577787A7B7D7E80828385FA
:1007700087888A8C8E8F91939596989A9C9EA0A23A
:10078000A3A5A7A9ABADAFB1B3B5B7BABCBEC0C244
:10079000C4C6C9CBCDCFD1D4D6D8DBDDDFE2E4E708
:1007A000E9EBEEF0F3F5F8FAFDFF09023B00020178
:1007B00000A0FA0904000001030101000921010160
:1007C000000122400007058103080001090401001F
:1007D0000103000000092101010001223200070588
:1007E00083030800011201100100000008DCDC0294
:1007F0000001000102030104033000000012034263
:100800000075006400670065007400390036000060
:1008100000180344006F006E00750074004300610F
:100820000062006C00650073000000040309040509
:10083000010980A101850319012AB700150126B716
:1008400000950175108100C0050C0901A101850406
:1008500019012AA002150126A00295017510810038
:10086000C005010906A101050719E029E7150025C2
:100870000195087501810295017508810305071925
:100880000029FF150026FF00950675088100050860
:1008900019012905950575019102950175039103CB
:1008A000C00011241FBECFE5D8E0DEBFCDBF04B627
:1008B00003FE24C080912A0390912B03A0912C0366
:1008C000B0912D038730904BA740B04BB9F41092F4
:1008D0002A0310922B0310922C0310922D0314BEA6
:1008E00084B7877F84BF0FB6F894A89581B58861D7
:1008F00081BD11BC0FBEE0E0F8E3099511E0A0E670
:10090000B0E0E2EBFFE402C005900D92A032B10727
:10091000D9F723E0A0E2B1E001C01D92AA32B207EC
:10092000E1F70E940B220C94D7270C940000A82F0B
:10093000B92F80E090E041E050EA609530E009C0D6
:100940002D9182279795879510F084279527305E03
:10095000C8F36F5FA8F30895EADF8D939D93089520
:10096000CF93CFB7CF93C395839BE9F7839B0EC0FB
:10097000839B0CC0839B0AC0839B08C0839B06C0DB
:10098000C0910103C395C0930103A6C0DF93C0913A
:100990000003DD27C85FDC4F839B02C0DF91E6CFF9
:1009A0002F930F931F9300B32FEF03FB20F94F9367
:1009B0003F9310B34FEF012703FB21F93BE031C018
:1009C0004E7F012F10B3216028C0102F4D7F226071
:1009D000000000B329C04B7F2460012F000010B33A
:1009E0002BC010B3477F28602AC04F7E00B3206120
:1009F0002CC04F7D10B320622FC04F7B00B320640A
:100A000032C0422700B349934FEF0000102713FB79
:100A100020F910B31C70C9F1297F91F2012703FB63
:100A200021F900B3237F89F2315058F1102713FBCD
:100A300022F910B3277E79F2012703FB23F92F7CDB
:100A400081F200B3102713FB24F92F7971F200C053
:100A500010B3012703FB25F92F7359F200C000B32F
:100A6000102713FB26F9223040F200C010B30127F3
:100A700003FB27F9243028F64F77206810B30000D5
:100A8000F9CF10E81ABF00271CC03B503195C31B9B
:100A9000D04010E81ABF0881033C11F10B3401F17A
:100AA0002091FD021981110F1213EDCF4A81441FCD
:100AB000093669F10D3211F0013E29F74F7009F046
:100AC000042F009306033F914F911F910F912F9197
:100AD000DF91CAB7C7FD47CFCF91CFBFCF91189550
:100AE00020910603222379F310910403112309F0C6
:100AF00044C034300AF443C0309304032093FF020F
:100B0000109100033BE0311B3093000338C000918B
:100B10000403013094F50AE54F7049F430917300F5
:100B200034FD2FC000937300CAEDD2E02EC04330D5
:100B300059F0443091F03091E50234FD22C0009329
:100B4000E502C6EED2E021C030911E0334FD19C08B
:100B500000931E03CFE1D3E018C03091F10234FDC1
:100B600010C00093F102C2EFD2E00FC02795A8F4A5
:100B70005150A9F4220F0000F9CF4AE503C042ED1D
:100B800001C0432FC4E1D0E032E011B31C60939A5E
:100B900011BB02B320E41CE05F93012756E002BBC7
:100BA000279520F4515021F4220FF9CF012756E068
:100BB00000003B5A02BBD0F2279528F4515029F48B
:100BC000220F0000F9CF012756E0279502BB20F441
:100BD000515021F4220FF9CF012756E029913323F8
:100BE00002BB21F6037F10910503110FC651D040BF
:100BF00002BB11F01093FD0210E81ABF086011B398
:100C0000137F402F437F5F9100C000C002BB11BB28
:100C100042BB59CF889A899A08950E940A060C947B
:100C2000BB15CF93C82F0E946408882351F0C0FFE2
:100C300002C0909A01C09098C1FF02C0919A01C071
:100C4000919881E0CF9108950F931F93CF93DF93F5
:100C50008C01EB010D328DE5180709F45AC0C0F480
:100C600009328DE5180799F160F40430110508F494
:100C70009AC00832110508F483C008321D45E1F11D
:100C800092C0CA810B328DE5180781F138F13BC063
:100C900001338DE5180709F453C040F4CA810F32BF
:100CA0008DE5180709F442C0D8F145C003338DE53E
:100CB000180709F451C008F449C004338DE518073A
:100CC00009F452C005331D4509F454C06CC0CA81F3
:100CD000CC2309F468C087E291E005C0CC2309F475
:100CE00062C080E091E00E9444085EC0CC2309F419
:100CF0005AC086EE90E0F7CFCA81CC2309F453C0E6
:100D000080EC90E0F0CFCC2309F44DC084E790E074
:100D100028C0CA81CC2309F446C088E790E021C0EE
:100D2000CC2309F440C08BE790E01BC0CC23D9F161
:100D30008EE790E016C0CC23B1F182E890E011C0BC
:100D4000CA81CC2381F185E890E00BC0CA81CC2315
:100D500051F189E890E005C0CA81CC2321F18DE8EA
:100D600090E00E94C51220C0CA81CC23E1F08CEB38
:100D700090E0B9CFCA81CC23B1F088EB90E0B3CF3B
:100D800081E00E94301E882371F0CA81CC2361F07B
:100D900088E60E94BE16802F0E94381788E60E94BF
:100DA0000C17C0E001C0C1E08C2FDF91CF911F91E3
:100DB0000F9108959C013A9521153F4138F5DC01CA
:100DC000AA27B270AC01442754709C0122273870C6
:100DD00094FF0FC090FF02C080E101C080E0AB2B08
:100DE00009F08062452B09F08064232B69F080684C
:100DF0000BC0892F8170AB2B09F08260452B09F065
:100E00008460232B09F08860FB0109940895CF9337
:100E1000DF93EC01805E9109089710F0209719F498
:100E20006BE477E102C066EB79E1CE010E94DA065D
:100E30008C2FDF91CF910C94BE16CF93DF93EC01F2
:100E40000E940C17CE01805E9109089710F0209740
:100E500019F462E577E102C06DEB79E1CE01DF9133
:100E6000CF910C94DA06CF93DF93EC010E94070731
:100E7000CE01DF91CF910C941D0781E008950C9471
:100E8000240608950C9441071F93CF93DF9300D05D
:100E900000D01F92CDB7DEB749835A836B83309160
:100EA000480189819A81311114C0662359F02223A7
:100EB00049F00E94451F182F682F89819A810E944E
:100EC000EE1E03C00E94191F182F69817A81812F9D
:100ED00004C00E94451F69817A810F900F900F9086
:100EE0000F900F90DF91CF911F910C94D008FC01CF
:100EF000262F408151816281738184810C94440743
:100F0000CF93DF93EC0160E00E947707BE01DF9191
:100F1000CF910C944207FF920F931F93CF93DF93CF
:100F2000E82FF0E0E350FB4FF490C82FC695C6952C
:100F3000C695D0E0FE01E357FA4F0491877010E0A8
:100F4000082E02C0159507950A94E2F70170112743
:100F5000FE01E358FA4FC491D0E002C0D595C79581
:100F60008A95E2F7C170DD270115110519F081EEB0
:100F70000E94BE16209719F086EE0E94BE168F2D95
:100F80000E943817CD2B19F086EE0E940C17012B0A
:100F900041F081EEDF91CF911F910F91FF900C9462
:100FA0000C17DF91CF911F910F91FF900895EF9251
:100FB000FF920F931F93CF93DF938C01F62E8AE05D
:100FC000E82EF8018491882309F457C0813009F094
:100FD00042C0E8012196FE018491813031F42196CE
:100FE000FE0184910E94381739C0823039F4E8013B
:100FF0002296FE0184910E94BE1630C0833039F4DF
:10100000E8012296FE0184910E940C1727C08430CB
:1010100029F5E8012296FE01249180E090E030E07D
:10102000205331092A30310560F4E89EA001E99E81
:10103000500D1124C901840F951F2196FE012491A2
:10104000EECF009759F0E7EBFBE03197F1F700C0E6
:1010500000000197F6CF0E948B07E8018E010F5F19
:101060001F4F8F2D882309F4ACCFE7EBFBE03197BE
:10107000F1F700C000008150F5CFDF91CF911F91B3
:101080000F91FF90EF90089560E00C94D7070E94B5
:101090007A20811102C00E941A210E94BF110C9473
:1010A000E90A0C94E50A282F2F7041F0822F90E076
:1010B0002A3010F44D9608950697089587E290E03F
:1010C000089508950C94610881E00895CF93C82F86
:1010D0000E9462088C2F0E941106CF9108950895F6
:1010E0000E94DA190E946F082FEB87E299E02150E5
:1010F00080409040E1F700C000000C94D0210F9395
:101100001F93CF93DF93EC0161E00E9477078C017E
:101110000E940111882321F08A8181110E941611F9
:10112000BE01C8010E943F07882381F1BE01C801AA
:101130000E947213882351F1BE01C8010E949013CE
:10114000882321F1BE01C8010E947B108823F1F0A1
:101150008A818823A1F0063D8CE5180769F00E3DD1
:101160008CE5180731F001151C4549F40E94700800
:101170000DC00E941A210AC00E940B1107C0CE01A7
:10118000DF91CF911F910F910C943D0780E0DF918B
:10119000CF911F910F91089580E090E008950895F8
:1011A00028E7829FC0011124FC012FE0729FE00D0F
:1011B000F11D1124E60FF11DEE0FFF1FE35CFE4F42
:1011C000859194910895880F991FFC01E356FA4F79
:1011D000859194910895CF93DF930E94D0080E9447
:1011E000FD09EC018115904508F043C0C11580E46C
:1011F000D80708F0CBC0C03ED10528F5C03CD105CA
:1012000008F0B3C0C83AD10578F4C53AD10508F062
:10121000A4C0C130D10509F4ECC008F4E8C0C43062
:10122000D10508F0E6C0E3C0CF3BD10508F0DFC030
:10123000C85AD0E0CC0FDD1FCF56DF4F0990D881C0
:10124000C02DD464D6C0C11590E2D90750F4C115A1
:1012500021E0D20708F0CDC0C83ED10508F4C9C0CE
:10126000C6C0C11580E3D80708F086C0CE019F70C4
:101270007FC0C11595E5D90708F043C0C11524E525
:10128000D20708F09AC0C11582E5D80708F5C11544
:1012900091E5D90708F07DC0CE0174E09695879559
:1012A0007A95E1F783709C2F937021E030E002C0C3
:1012B000220F331F9A95E2F73C68382BCF70C69502
:1012C000C69580E2C89FE0011124C22BD32B91C0A8
:1012D0009E01237033278C2F86958695C115D345A3
:1012E00008F05CC0C1E0D0E002C0CC0FDD1F2A9541
:1012F000E2F720E2829FC0011124C82BD92BDC68C1
:1013000078C0C11529E5D207A0F4C11588E5D80732
:1013100008F058C0C11596E5D90708F068C08C2FB1
:101320000E94910A8F71C82FD0E0DC2FCC27D062A9
:1013300060C0C1152AE5D20708F449C0CE01905615
:101340008115904208F053C08D2F8F710E94910A31
:10135000DD27D0628F71D82B4CC0C55AD0E0C15464
:10136000DF4FC881D0E0D06444C0CE01805C9109D9
:101370000E94E308EC013DC0CE019927D3FF03C0D2
:10138000EC01D86C36C0EC01D06C33C0DF70D06A91
:1013900030C0DC2FCC27C16FD06A2BC0C1E0D0E0B9
:1013A00002C0CC0FDD1F2A95E2F720E2829FC00128
:1013B0001124C82BD92BDA681CC0DC2FCC27C46FB2
:1013C000D06A17C0DC2FCC27C06FD06A12C08C2F18
:1013D0008F700E94910A94E0D695C7959A95E1F78F
:1013E000CF70D0E0DC2FCC27D069C82B02C0C0E082
:1013F000D0E0CE01DF91CF9108958238910569F157
:10140000B0F48133910509F46DC048F48932910537
:1014100009F463C08A32910509F469C008958533DF
:10142000910509F455C089339105B9F00895833EBB
:10143000910569F138F4803E9105B1F0823E910545
:1014400009F10895863E9105A9F1873E9105B9F10C
:10145000843E910509F064C023C02091D80220FD8C
:101460004FC021FD4DC008958091D80280FD44C039
:101470008091D90280FF44C08091D80284FD42C08F
:1014800083EE4DC08091D80282FF38C0F5CF8091A5
:10149000D80282FD33C08091D90280FD31C0ECCFEB
:1014A0008091D90281FF32C08091D80284FD2AC088
:1014B00087EE35C08091D80283FF26C0F5CF80919A
:1014C000D80283FD21C08091D90281FD1FC0ECCFDD
:1014D0008091D80285FD1CC01DC08091D80285FD79
:1014E00019C016C08091D80286FD16C017C0809121
:1014F000D80286FD13C010C089E311C082EE0FC070
:1015000080EE0DC080E00BC086EE09C084EE07C0FF
:1015100089E205C085E303C08AE201C081E390E06F
:1015200008959091D80292FF0DC0282F287128307D
:1015300019F4877F846006C0282F2471243011F4A9
:101540008B7F886093FF0DC0282F2871283119F4F4
:10155000877E846106C0282F2471243111F48B7E8C
:1015600088612091D90220FF0DC0382F38713830A2
:1015700019F4877F816006C0382F3171313011F442
:101580008E7F886021FF0DC0282F2871283119F423
:10159000877E816106C0282F2171213111F48E7E52
:1015A000886194FD877E0895E82FF0E0EE0FFF1F1D
:1015B000EC57FD4F808191810895089588E78A95C1
:1015C000F1F7089508950C94E20A0C94E30A0C9440
:1015D000E20A0C94E70ACF93DF93A1EDB0E049ED66
:1015E00050E061E070E08D91E82FE295EF70F0E05F
:1015F00021A98F70EB0102C0CC0FDD1F8A95E2F7A5
:10160000CE019C2F9095922391AB92A9892B82AB0E
:101610004A175B0741F7A2ECB0E041ED50E061E012
:1016200070E08D91E82FE295EF70F0E021A98F70C6
:10163000EB0102C0CC0FDD1F8A95E2F7CE019C2F93
:101640009095922391AB92A9892B82AB4A175B07A5
:1016500041F7E4E7F2E0A4E8B2E084E892E0119216
:1016600011921D921D928E179F07C9F788E00E9464
:10167000CA0BDF91CF910C9447086F927F928F92A3
:101680009F92AF92BF92CF92DF92EF92FF920F9311
:101690001F93CF93DF9381EDC82E80E0D82E04E70F
:1016A00012E094E8A92E92E0B92E712C882483943C
:1016B000912CF60181916F01C82FC295CF70D0E0B7
:1016C00099A98F70740101C0EE0C8A95EAF7892FF1
:1016D0008E2989AB8AA96E2C609486218AAB0E94E0
:1016E000DE0AE2ECF0E040E050E020E030E0619122
:1016F000A62FA295AF70B0E0D0968C9190E06F705D
:1017000002C0959587956A95E2F780FD08C0C401EF
:10171000042E02C0880F991F0A94E2F702C080E0ED
:1017200090E0282B392B4F5F5F4F4F305105F9F672
:1017300089A9682269AA8AA9E82AEAAAF801808107
:1017400091812817390721F03183208381E001C07E
:1017500080E0782A0E5F1F4FA016B10609F0A9CFCE
:10176000272D48E064E872E084E792E00E94CB0B0A
:101770000E945108872DDF91CF911F910F91FF900B
:10178000EF90DF90CF90BF90AF909F908F907F9021
:101790006F9008950895FF920F931F93CF93DF9357
:1017A000F82E092F162FD72FC42F222349F081E0BE
:1017B000809322010E948F21909321018093200128
:1017C000809122018823D9F08091200190912101FC
:1017D0000E949B21069798F0EF2DF02FA12FBD2F8F
:1017E00080E090E04C2F50E08417950734F421916D
:1017F00031912D933D930196F7CF10922201DF9105
:10180000CF911F910F91FF900895EF92FF920F9348
:101810001F93CF93DF938B01682F11110AC04423CC
:1018200029F0E82FF0E0E655F94F6491762F862FE6
:1018300075C0212F30E0E82FF0E0442321F0E65579
:10184000F94FE491F0E046E0049FC0011124CFEF8E
:10185000D0E0BE010E943C274BEA4603C001479FEF
:10186000900D1124800F911D800F911D982F990FBD
:10187000890FAE01421B530B4E9FD0014F9FB00DFD
:101880005E9FB00D11249B2F189FA0011124452F9E
:1018900055278E01041B150B0E9FA0010F9F500DA5
:1018A0001E9F500D11247E01E81AF108E29E80016E
:1018B000E39E100DF29E100D1124212F3327C21B21
:1018C000D30BCE9F9001CF9F300DDE9F300D1124A2
:1018D00062307105A9F048F46115710569F0613055
:1018E0007105C9F48B2F752F0DC06430710581F01F
:1018F00058F06630710579F47E2F8B2F932F0DC031
:10190000832F7B2F9E2F09C08E2F7B2F952F05C0F5
:101910008E2F732F02C07E2F852F692FDF91CF91DD
:101920001F910F91FF90EF90089541E00E94050CE8
:10193000089508950F931F93CF93DF93EC01162F13
:10194000042F0E940111882341F0602F812FDF9125
:10195000CF911F910F910C944911FE018491DF9159
:10196000CF911F910F910895CF93DF93762FE901C7
:10197000682F842F0E94950C798368838A83DF9176
:10198000CF91089580919402282F269530E021155B
:10199000310519F48170826005C02531310524F0CC
:1019A0008170886280939402089588E090E00C949E
:1019B0008B27CF92DF92EF92FF926B017C010E9406
:1019C000C20CB701A60188E090E0FF90EF90DF9095
:1019D000CF900C94A827E4E9F2E083E080831182A1
:1019E0008FEF8283838314826081718182819381EE
:1019F0000C94D90C8091940280FF02C086950895C2
:101A000080E0089590919802933018F49F5F90932E
:101A10009802882351F06091940270919502809110
:101A20009602909197020C94D90C089581E00C9441
:101A3000020D90919802992319F091509093980279
:101A4000882351F0609194027091950280919602E2
:101A5000909197020C94D90C089581E00C94190D83
:101A600070E00C94E310609161008091940280FF1B
:101A70000AC08091600023E0829FC0011124875634
:101A80009D4F0C94300D80916200909163008917F6
:101A900080F7E82FF0E09F01220F331FE20FF31FC2
:101AA000E756FD4F1182108212828F5FF0CF909126
:101AB000940290FF16C090916200209163009217EB
:101AC00070F4E92FF0E0DF01AA0FBB1FEA0FFB1F44
:101AD000E756FD4F8183608342839F5FF0CF0C9474
:101AE000330D0895CF93DF9300D01F92CDB7DEB7AB
:101AF0009091940290FF0AC09E012F5F3F4F0E9479
:101B0000B40C4B8169818A810E94570D0F900F9010
:101B10000F90DF91CF910895CF93DF93EC01EC818B
:101B2000F0E0E655FA4F4491E4E9F2E06281818108
:101B30000E94720D8C818F5F8C83DF91CF9108950D
:101B4000CF93DF93EC01E4E9F2E0438162818C8181
:101B50000E94720D8C818F5F8C83DF91CF910895ED
:101B6000EF92FF920F931F93CF93DF9300D01F92BA
:101B7000CDB7DEB7082FF62E142FE22E80919402F7
:101B800080FF35C0E82FE695F0E0E752FF4F9081E7
:101B900090932B018E7F823061F49E012F5F3F4F27
:101BA000802F0E94B40C4B8169818A810E94570D5D
:101BB0000CC0923019F41091970207C0963019F4B6
:101BC0000091950202C09930D9F300939502F092EA
:101BD000960210939702EE2051F06091940270915A
:101BE000950280919602909197020E94D90C0F90D5
:101BF0000F900F90DF91CF911F910F91FF90EF9079
:101C00000895E4E9F2E09181282F4381628188E020
:101C1000890F0C94B00D81E00C94010EE4E9F2E020
:101C20009181282F4381628188EF890F0C94B00D38
:101C300081E00C940E0EE4E9F2E0628121E1620F92
:101C400008F46FEF282F438181810C94B00D81E05F
:101C50000C941B0EE4E9F2E0628121E1621B08F4BE
:101C600060E0282F438181810C94B00D81E00C94B9
:101C70002A0EE4E9F2E0438121E1420F08F44FEF3C
:101C8000282F628181810C94B00D81E00C94390E73
:101C9000E4E9F2E0438121E1421B08F440E0282F0F
:101CA000628181810C94B00D81E00C94480E20E09B
:101CB0000C94B00DFF920F931F93CF93DF93EC0121
:101CC000F12C0FEF10E060916400F616F0F48091B3
:101CD00062002F2D30E0280F311DC901880F991F98
:101CE000280F391F27563D4F70E0C8010E9450272A
:101CF000962F8C814091970260919602F99E800DFB
:101D000011240E94B40CF394DECF0E94330D9A810B
:101D10008C8190FF02C08F5F01C081508C83DF9166
:101D2000CF911F910F91FF900895AF92BF92CF92E4
:101D3000DF92EF92FF920F931F93CF93DF93FC01FB
:101D4000828180FF02C00FEF01C001E010E042E19C
:101D5000A42E80916400181708F043C0809162009F
:101D6000C12ED12CE601C80FD11DCE01880F991FBD
:101D7000C80FD91FC756DD4F198218821A8234E066
:101D8000E32EF12CB12C809123018B0D83312CF0AB
:101D90006A2D0E942E27892F05C087FF03C09091CE
:101DA0006400890F082E000C990BC816D90691F40F
:101DB000809197028E9DA0018F9D500D1124559505
:101DC0004795559547959E016091960280919502A1
:101DD0000E94B40CB00EF1E0EF1AF108A1F61F5FFB
:101DE000B8CF0E94330D80912301013031F481116D
:101DF00002C080916400815007C090E0019660911C
:101E0000640070E00E94502780932301DF91CF91FE
:101E10001F910F91FF90EF90DF90CF90BF90AF9008
:101E20000895E4E9F2E080818E7F80836081718192
:101E3000828193810E94D90C10922C012FEB84EDAA
:101E400091E0215080409040E1F700C000000C94E8
:101E5000330D60919402669570E041E050E085E6B4
:101E600090E00E947627892B19F481E080932C0161
:101E70000E948F21909325018093240108959091D1
:101E8000940290FF35C09170811102C0926006C02B
:101E9000853110F0986202C0880F982B90939402BD
:101EA000662351F0609194027091950280919602A0
:101EB000909197020E94D90C60919402669570E00F
:101EC00041E050E085E690E00E947627892B19F0EA
:101ED00010922C0102C00E94290F81E080932701FB
:101EE0004091970260919602809195020C94570E52
:101EF0000895682F90919402969581E0890F85311D
:101F000008F081E00C943F0F81E00C94790F682F6A
:101F10009091940296958FEF890F09F484E10C94C7
:101F20003F0F81E00C94870F61E00C943F0FE4E9D0
:101F3000F2E080818160808386950C94940F80917B
:101F4000940280FD0C94110F0C94970F60E00C9498
:101F50003F0F80912A0181112EC00E947A208111A9
:101F600004C00E941A210E94EB0C0E94D50C6093C1
:101F700094027093950280939602909397026E7FDD
:101F800061F40E94EB0C0E94D50C60939402709354
:101F9000950280939602909397020E94C20C109231
:101FA0002C018091940280FF03C086950E94A60FA9
:101FB00081E080932A0108950F931F93CF93DF93BD
:101FC00080912C01882309F476C090912B01809197
:101FD00094028695891B80932601923061F490E0EB
:101FE00044E661E08A559A4F0E949A0CC82FD0E0CF
:101FF0000CE81DE030C0963061F490E044E665E006
:102000008D559A4F0E949A0CC82FD0E000EA1DE02F
:1020100022C0993069F4869590E044E661E08056EC
:102020009A4F0E949A0CC82FD0E00AE51EE013C018
:102030009F3069F4869590E048EC61E083569A4FB2
:102040000E949A0CC82FD0E005E91EE004C0C0ED44
:10205000D7E009E91CE080912701882389F01092DC
:1020600027010E948F219E0120953095820F931F9A
:102070009093250180932401109229011092280148
:1020800080912401909125010E949B218C179D072E
:1020900090F080912401909125018C0F9D1F9093C9
:1020A00025018093240184E291E0F801DF91CF9132
:1020B0001F910F910994DF91CF911F910F91089576
:1020C000882311F0FA0101C0FB010994CF93DF933B
:1020D000C82FD62F0E94FA0C8C1740F00E94FA0CE1
:1020E0008D1720F4DF91CF910C94840F8C2FDF910A
:1020F000CF910C94940F0F931F93CF93FB01C28148
:10210000CC2309F458C08C010E94C61F8272F801CA
:10211000E25CFC45E431F10508F050C0E65DFF4F9C
:102120000C9464270E949F0F48C041E95FE064E877
:102130007FE004C044E85FE061E97FE00E94601056
:102140003CC048E15EE06BE07EE0F8CF4BE05EE053
:1021500068E17EE0F3CF46E35EE067E27EE0EECF4B
:1021600047E25EE066E37EE0E9CF44E55EE065E4F9
:102170007EE0E4CF45E45EE064E57EE0DFCF4DE263
:102180005DE066E17DE0DACF46E15DE06DE27DE0B5
:10219000D5CF81E00E94940F10C065E082E008C0B6
:1021A00068E086E005C06EE089E002C064E18FE08F
:1021B0000E94661002C0C1E001C0C0E08C2FCF9128
:1021C0001F910F9108950F931F93CF93DF938C016D
:1021D000EB0180912D01811105C00E94BB1481E0AB
:1021E00080932D01AE01440F551F4C0F5D1F24E657
:1021F00030E0B80180EBDF91CF911F910F910C94EB
:10220000451587E190E00E94832791E0813009F035
:1022100090E0892F08950E940111882311F060E059
:1022200001C061E087E190E00C9497278091300134
:10223000883C18F48E5F80933001089580912E01C0
:1022400090912F010E949B21853F914030F4809115
:102250002E0190912F01892BD9F480913001882390
:1022600019F081508093300180913001853618F04B
:1022700081508093300180913001873918F082506D
:10228000809330010E948F2190932F0180932E0123
:1022900008957F928F929F92AF92BF92CF92DF92DA
:1022A000EF92FF920F931F93CF93DF93782E082F17
:1022B00010E0C62FD0E0BE010D2E000C880B990B4C
:1022C0000E940C266B017C016091300170E080E07F
:1022D00090E00E940A2620E030E048E453E40E94A7
:1022E00069254B015C01C01BD10BBE01DD0F880BC2
:1022F000990B0E940C269B01AC01C501B4010E9400
:102300009D269B01AC01C701B6010E94FC246B0114
:102310007C01B801110F880B990B0E940C26A701B4
:1023200096010E949826181634F0C701B6010E9443
:10233000DB25862F01C0872DDF91CF911F910F9153
:10234000FF90EF90DF90CF90BF90AF909F908F90D5
:102350007F900895CF93DF9397FF0DC0FB012281FB
:10236000222349F0EC010E94D511CE019F770E94F3
:1023700016120E94FF1181E0DF91CF9108958CE049
:1023800090E00E94832790E0A0E0B0E08093CF022D
:102390009093D002A093D102B093D202089560919D
:1023A000CF028CE090E00C9497270E94C61F809388
:1023B000D3020E94D91F8091CF02813071F048F082
:1023C000823081F08430A1F487EE0E94381788E1D2
:1023D0000DC082EE0E94BE160BC088E193E00E9401
:1023E000330706C082EE0E94BE1687E50E943817AA
:1023F0008FE295E70197F1F700C000000895809102
:10240000CF02813039F040F0823031F0843051F425
:1024100088E206C08CE204C082EE0E940C1702C063
:102420000E9438178091D3020C94D61F0F931F93EC
:10243000CF93DF938C01CCE0D0E0C8010C2E02C01A
:10244000969587950A94E2F78F700E9453080E9430
:1024500038172497CC3F8FEFD80779F7DF91CF91CA
:102460001F910F910895BF92CF92DF92EF92FF924A
:102470000F931F93CF93DF936B017C01C7E0D0E0F4
:102480000CE110E0BB24B394D701C601002E04C0B8
:10249000B695A795979587950A94D2F78F7039F4DA
:1024A000B1100AC00E9453080E94381705C00E944C
:1024B00053080E943817B12C219704501109CF3FBF
:1024C0008FEFD80729F0C430D105F4F6B12CDCCF5A
:1024D000DF91CF911F910F91FF90EF90DF90CF9000
:1024E000BF900895CF92DF92EF92FF926115710530
:1024F00021E18207910508F043C06115710521E0D3
:102500008207910520F02091CF022230C9F16B01A2
:102510007C010E94D511C114D10481E0E806F104C8
:1025200028F18091CF02811121C021E0E21AF10847
:10253000D701C60188279C7FAF70BB272AE0B695DC
:10254000A795979587952A95D1F7BC01CD0178522B
:102550008F4F9F4F0E94331283E0D822EE24FF2436
:10256000C701B60174528F4F9F4F02C0C701B60119
:102570000E943312FF90EF90DF90CF900C94FF11E8
:10258000FF90EF90DF90CF9008950F931F93CF931C
:10259000DF93EC01892B09F4A0C08881882309F41A
:1025A0009CC087FD06C0682F70E080E090E0219617
:1025B0007FC0982F907E903CA1F4682F6F71862F7A
:1025C00090E0A0E0B0E016E0880F991FAA1FBB1FA3
:1025D0001A95D1F729812F73BC01CD01622B229668
:1025E00067C0982F907F903E19F549814F7350E056
:1025F00060E070E0E6E0440F551F661F771FEA9524
:10260000D1F790E0A0E0B0E0FCE0880F991FAA1F8E
:10261000BB1FFA95D1F7AA27BB27842B952BA62B96
:10262000B72B2A812F73BC01CD01622B239640C0AA
:10263000982F987F903FC1F5853FB0F549814F7342
:1026400050E060E070E09CE0440F551F661F771F6C
:102650009A95D1F7877090E0A0E0B0E022E1880F72
:10266000991FAA1FBB1F2A95D1F7842B952BA62B48
:10267000B72B2B812F73AC01BD01422B8A818F7345
:1026800090E0A0E0B0E036E0880F991FAA1FBB1FC2
:102690003A95D1F78A019B01082B192B2A2B3B2B4A
:1026A000C901B801249604C021966FEF7FEFCB01DA
:1026B0008B019C01185D2109310901151840210584
:1026C000310508F46ACF6F3F0FEF7007800790075E
:1026D00009F463CF0E94721260CFDF91CF911F91F6
:1026E0000F9108950F931F93CF93DF93EC018B010C
:1026F000FB018281882361F00E94C61FCE01815EAA
:102700009C458530910520F48093CF020E94CF1123
:10271000B801CE01DF91CF911F910F910C94AA11B6
:10272000CF93DF93EC01FB018281882309F41FC161
:10273000C230FCE5DF0708F41BC1C6319CE5D907B0
:1027400038F09E012A5F3C452930310508F010C160
:102750000E948D209093D9028093D802C031ECE57D
:10276000DE0709F4C3C008F041C0C8308CE5D807C3
:1027700009F49AC0F0F4C430ECE5DE0709F487C030
:1027800068F4C2308CE5D80709F477C0C330DC4563
:1027900009F0E3C08091D802826076C0C630ECE5D3
:1027A000DE0709F46EC008F07BC08091D802886013
:1027B0006BC0CC308CE5D80709F485C068F4CA300A
:1027C000ECE5DE0709F474C008F079C00E94DA195C
:1027D0008091D802806858C0CE308CE5D80709F4C3
:1027E00076C008F07FC08091D8028BC0CB3FECE56B
:1027F000DE0709F44FC018F5C3318CE5D80709F49A
:102800007DC078F4C131ECE5DE0709F473C0C23154
:10281000DC4509F0A2C00E94DA198091D8028F77B6
:1028200033C0C5318CE5D80709F472C008F486C0FE
:10283000CA3FDC4509F091C08091D9023EC0CF3F2C
:10284000FCE5DF0709F45FC058F4CD3F9CE5D907EC
:1028500009F444C008F43FC08091D90282602DC0C1
:10286000C130FDE5DF0709F475C008F45DC0C23072
:10287000DD4509F072C080E06EC08091D8028160B1
:1028800003C08091D80280618093D80266C0809195
:10289000D80211C08091D90282608093D9025DC0B4
:1028A0008091D8028062F0CF8091D8028064ECCF12
:1028B0008091D80288608460E7CF8160EECF8091FC
:1028C000D8028E7FE1CF8091D8028D7FDDCF8091BD
:1028D000D802877FD9CF8091D90218C08091D902C0
:1028E0008D7FDBCF8091D8028F7ECECF8091D802B2
:1028F0008F7DCACF8091D8028F7BC6CF8091D802BE
:10290000877F8B7FC1CF8091D9028D7F8E7FC5CF8E
:102910008091D80282FB222720F991E0922790FB38
:1029200082F990FB83F9B0CF8091D902982F9095CE
:1029300091708E7F892B90FB81F9AFCF0E94DA19BD
:102940008091D80287FB222720F991E0922790FB03
:1029500087F99ACF81E00E941C218091D802909142
:10296000D9020E949E200E94DA1980E001C081E015
:10297000DF91CF91089511B887E080B985B3836066
:1029800085BB86B7846086BF86B7816086BF86B701
:10299000806486BF0895EF92FF920F931F93CF93A9
:1029A000DF93182FEB0116BE84EA86BF0E948F21A9
:1029B0007C0106B607FC0EC0CF3F8FEFD807C9F3E6
:1029C0000E948F218E199F098C179D0790F38EEF1F
:1029D0009FEF28C081B1887F883039F081B1887F2E
:1029E000803119F08FEF9FEF1DC013B984E886BFC7
:1029F0000E948F218C0106B607FC0CC0CF3F8FEFE1
:102A0000D807C9F30E948F21801B910B8C179D075B
:102A100090F3DDCF81B1887F883111F0803411F7D8
:102A200080E090E0DF91CF911F910F91FF90EF90A8
:102A300008950F931F93CF93DF93EB0183B984E83D
:102A400086BF0E948F218C0106B607FC0EC0CF3FC7
:102A50008FEFD807C9F30E948F21801B910B8C1731
:102A60009D0790F38EEF9FEF0BC021B1287F81E08F
:102A700090E0283211F480E090E0919581959109E1
:102A8000DF91CF911F910F910895CF92DF92EF9236
:102A9000FF920F931F93CF93DF936B018A0179010C
:102AA000B9010E94CB14E6010C0D1D1DC017D10702
:102AB00059F424E926BFDF91CF911F910F91FF9028
:102AC000EF90DF90CF90089597FDF3CFB7018991F4
:102AD0000E941915EBCF909336018093350108952C
:102AE000E0913501F0913601309721F00190F081AD
:102AF000E02D099480E00895E0913501F0913601D0
:102B0000309721F00280F381E02D099408952091FF
:102B10003301309134012817390771F09093340153
:102B200080933301E0913501F0913601309721F027
:102B30000680F781E02D09940895209131013091AC
:102B400032012817390771F09093320180933101D7
:102B5000E0913501F0913601309721F00084F18544
:102B6000E02D0994089584B7806884BF84B7806895
:102B700084BF089508950C94BA150C94BA150C945A
:102B8000BA150E94B3150E94BD150C940D0681E084
:102B900008950C94C7150E9488210E94EB0A0E9498
:102BA000E9210E94A90F0C94BF157F928F929F92EA
:102BB000AF92BF92CF92DF92EF92FF920F931F934B
:102BC000CF93DF93CDB7DEB72A970FB6F894DEBF69
:102BD0000FBECDBF0E943D0B0E94C915811111C0CF
:102BE0008FEF89838A831B820E948F218160782FD7
:102BF0009D838C8349815A816B818D810E948A16C5
:102C00004FC048E3A42E41E0B42E00E010E0702E47
:102C1000802F0E94D40A6C01F501819091905F0190
:102C2000882699268114910431F40F5F1F4F0830D4
:102C3000110569F7D5CF8091E10181FD0E94DD0A80
:102C400080E0EE24E394F12C94012E213F21232BEC
:102C500009F18E837F82CE20DF2081E0CD2809F428
:102C600080E088870E948F218160782F9A878987EA
:102C70004E815F8168858A850E948A16000F111F28
:102C8000F801E85CFE4F80819181E826F926F18207
:102C9000E08206C08F5FEE0CFF1C8F30A9F6C5CF17
:102CA0000E94DC0F0E94011181110E941E110E94DE
:102CB0007015909137018917C9F00E9470158093A3
:102CC00037012A960FB6F894DEBF0FBECDBFDF9155
:102CD000CF911F910F91FF90EF90DF90CF90BF9019
:102CE000AF909F908F907F900C9466082A960FB6B5
:102CF000F894DEBF0FBECDBFDF91CF911F910F9132
:102D0000FF90EF90DF90CF90BF90AF909F908F900B
:102D10007F900895CF93DF93CDB7DEB72B970FB693
:102D2000F894DEBF0FBECDBF4F83588769877A877F
:102D30008B87DE01119686E0FD0111928A95E9F7F5
:102D400085E0FE01379601900D928A95E1F7498161
:102D50005A816B817C818D819E810E94931C2B9670
:102D60000FB6F894DEBF0FBECDBFDF91CF910895AF
:102D7000FC01808191810E94871F0895CF93882351
:102D800009F448C0C82F8CEF8C0F813AD0F46C2F17
:102D900080916600909167000E942D21882349F060
:102DA0006C2F80916600909167000E9465210E94BF
:102DB00017206C2F80916600909167000E9463211C
:102DC0000CC080E28C0F883058F4C77081E001C0DD
:102DD000880FCA95EAF70E94C91FCF910C9417205B
:102DE000EBE5EC0FE33040F4F0E0E45EFE4F808171
:102DF00090E0CF910C948715C85AC73158F4EC2F46
:102E0000F0E0EE0FFF1FE251FF4F80819181CF91E3
:102E10000C949D15CF910895882349F1682F8CEF6C
:102E2000860F813A38F480916600909167000E9485
:102E300065210CC080E2860F883050F4677081E015
:102E400001C0880F6A95EAF70E94CF1F0C941720E3
:102E50008BE5860F833020F480E090E00C9487159A
:102E6000685A673120F480E090E00C949D15089535
:102E7000CF93C82F0E94BE16C93349F42FEF8DEEB1
:102E800092E0215080409040E1F700C000008C2F7C
:102E9000CF910C940C17882321F00E94C91F0C9429
:102EA00017200895882321F00E94CF1F0C9417202B
:102EB0000895CF92DF92EF92FF920F931F93CF93DB
:102EC000DF937C01062FC72FFC01158112951F701F
:102ED000D281D1110E94E91F0E94BF1F882399F05F
:102EE000DD2389F08C2F807F803421F080E2800FF9
:102EF000883048F082E00E9461200E94BF1F91E06C
:102F0000D82ED92601C0D12CCC2EC2948FE0C82255
:102F10008C2D90E0FC01E25CFF4F0C9464278C2F19
:102F2000807FCF70882311F0C295C07FDD2399F098
:102F3000CC2309F482C180E2800F883010F00111A7
:102F400004C08C2F0E94C91F03C08C2F0E94DC1F5D
:102F50000E94172072C1802F0E940C17CC2309F405
:102F600091C180E2800F883010F0011104C08C2FD5
:102F70000E94CF1F03C08C2F0E94E21F0E941720C7
:102F800081C18C2F807FCF70803211F0C295C07FBD
:102F9000002319F00130C9F022C0DD2371F01123A4
:102FA00041F0113031F40E94FC1F8C2B0E94042050
:102FB00069C10E94FC1F8C2B1DC0112319F0113018
:102FC00009F460C10E940D2025C0DD2321F01630D8
:102FD00008F058C10EC0153008F054C11BC0DD23E5
:102FE00061F0112331F0F701858180FF26C18F70D8
:102FF00085838C2F0E944B1745C1112359F009334B
:1030000009F02CC1FFEF2DEE82E0F150204080400E
:10301000E1F722C18C2F0E94521734C18C2F869564
:103020008695837019F0813061F02CC1DD2321F089
:10303000802F9C2F937002C080E090E00E94871543
:1030400029C1DD2321F0802F9C2F937002C080E0E6
:1030500090E00E949D151EC18C2F837009F045C021
:10306000D11114C1402F429546954770440F440F2B
:10307000602F6F70862F90E0A0E0B0E0042E04C0B7
:10308000880F991FAA1FBB1F0A94D2F704FF10C014
:103090000FE010E020E030E004C0000F111F221FFD
:1030A000331F4A95D2F7009510952095309503C0AF
:1030B00000E010E09801C695C695C370BC01CD0133
:1030C000602B712B822B932BC23049F058F4C13006
:1030D00019F00E94E41DDAC00E94D21DD7C00E94E0
:1030E000F61DD4C00E94D01DD1C0DD2319F08C2F55
:1030F000817001C08695882309F4C8C0402F42958D
:1031000046954770440F440F602F6F70862F90E0F4
:10311000A0E0B0E0042E04C0880F991FAA1FBB1FB7
:103120000A94D2F704FF10C00FE010E020E030E076
:1031300004C0000F111F221F331F4A95D2F70095BC
:1031400010952095309503C000E010E09801C695D9
:10315000C695C370BC01CD01602B712B822B932BC4
:10316000C23049F058F4C13019F00E94C91E8EC017
:103170000E94B71E8BC00E94DB1E88C00E940A1EE0
:1031800085C0CF70DD2339F08C2F0E94501E802F18
:103190000E944B177BC0802F0E9452178C2F0E94D9
:1031A000711E74C0023F01F128F4003F41F0013F5D
:1031B000A1F03FC0033FF9F0043F39F13AC0DD23ED
:1031C00041F0153008F05EC08C2F8F710E94961E62
:1031D00059C0163008F056C0F7CFDD2339F08C2FD8
:1031E0008F710E94501E4EC0DD23C9F38C2F8F714A
:1031F0000E94711E47C0DD2329F08C2F8F710E9421
:103200003B1E40C00E94161E3DC0DD2349F0CF7119
:103210008C2F0E94501E63E08C2F0E944C2032C0E5
:1032200081E00E946120123068F182E00E946120FA
:1032300029C0DD2331F0112391F2802F0E94BE16A8
:1032400021C0112399F2093349F49FEFEDEEF2E02A
:103250009150E040F040E1F700C00000802F0E9454
:103260000C1710C04C2F4F70602FC7010E94CC0864
:103270000E94411D0FC04C2F4F70602FC7010E944C
:10328000CF0808C088EF8C0D843020F40E947015A0
:103290000E946608DD20C9F00E94BB1F80FD15C09A
:1032A000F70112820E94B51F0E94501EC7010E94A2
:1032B00086190E94B51FDF91CF911F910F91FF904A
:1032C000EF90DF90CF900C94711EDF91CF911F9102
:1032D0000F91FF90EF90DF90CF9008950F931F9381
:1032E000CF93DF93EC01688179818A810E94921FDC
:1032F0008C010E94ED1E0E94BE1DB801CE010E94ED
:103300005917DF91CF911F910F910895CF93DF93BC
:10331000EC01988189812B813C81232B31F08F3FF7
:1033200031F481E09F3F19F403C081E001C080E0E7
:1033300080FD19C0CE010E947F0881110CC00E943F
:10334000BF1F882381F08A81882369F082E0DF91A2
:10335000CF910C946120CE010E946E19CE01DF91B5
:10336000CF910C948007DF91CF910895882321F0AD
:103370000E94DC1F0C9417200895882321F00E94DE
:10338000E21F0C94172008950E94E91F0E94F91F64
:103390000E94172080E090E00E94871580E090E076
:1033A0000C949D1580916600909167000E946721A2
:1033B0000C94C4190E94D91F0C94D219E92FE295DC
:1033C000EF704E2F50E0FA013297EE30F105B0F475
:1033D000E25BFF4F0C946427803F91F018F4883E25
:1033E00068F40EC0843F51F40BC0883E48F0813F22
:1033F00029F406C093FB882780F9089580E008959A
:1034000081E008950E94871F0E94DE190895CF93DE
:10341000DF9300D000D01F92CDB7DEB70F900F9092
:103420000F900F900F90DF91CF910895CF93DF937E
:1034300000D000D000D0CDB7DEB726960FB6F894F6
:10344000DEBF0FBECDBFDF91CF9108951F93CF9305
:10345000DF93C091490116E080914A01C81799F0A5
:10346000D0E01C9FF0011D9FF00D1124E55BFE4F85
:103470004081518162817381848195810E94161AF5
:103480002196C770E9CFDF91CF911F9108954091A8
:103490007B0150917C0160917D0170917E01809152
:1034A0007F01909180010C94161A0F931F93CF9374
:1034B000DF938091800182958F7009F05DC08091CB
:1034C0007D01882309F458C08091490110914A0177
:1034D00060917B0170917C01C0917E01D0917F0150
:1034E00091E06F3F09F090E0292F06E0811709F481
:1034F00043C0209721F07F3F21F030E003C031E04E
:1035000001C0322F90E030FD34C0089FF001099FC8
:10351000F00D1124DF01A55BBE4F11963C91119770
:10352000371327C03C91361324C012963C91129752
:1035300031111FC013964D915C9114974C1B5D0B7C
:10354000483C5105B0F4809180018F708061809378
:103550008001E05BFE4F80818F70806180838BE70C
:1035600091E00E948619DF91CF911F910F910C94E9
:10357000261A01968770BACFDF91CF911F910F91D4
:1035800008959F92AF92BF92CF92DF92EF92FF92F7
:103590000F931F93CF93DF93CDB7DEB761970FB62D
:1035A000F894DEBF0FBECDBF8C0185E0F801DE01CF
:1035B0001D9601900D928A95E1F7F80140815181A5
:1035C000E28090917B0160917C0120917E0130919D
:1035D0007F012115310531F06F3F31F481E09F3FCC
:1035E00019F403C081E001C080E0F82FF1709F2E34
:1035F00080FD46C1F801A380B4808BE7C82E81E02E
:10360000D82EF0907D01F501E21BF30BFF2009F4A9
:10361000DFC080918001E83CF10508F09BC0282FB5
:10362000207F09F052C0561313C0491311C0FE2C5D
:10363000E1100EC08F708061809380010E94471A54
:10364000C6010E94861980918001F801858358C1C6
:10365000AB2831F05F3F31F481E04F3F19F403C0F4
:1036600081E001C080E080FD03C081E08E2502C0C2
:1036700080E090E0F82FF170FF2E80FF1CC0809159
:10368000490120914A0136E0821709F417C190E000
:10369000389FF001399FF00D1124E55BFE4F6181E9
:1036A000561306C06081461303C06281E61203C050
:1036B00001968770E9CFFE2CEE2009F421C180919C
:1036C00080018160809380015AC0561306C049135F
:1036D00004C0E11002C0F8019FC04D875E878D8550
:1036E0009E850E94021A882379F1EE2069F12091CB
:1036F0008001822F82958F7090E0029774F0809104
:103700007B0190917C0198878F831986BB86AA865E
:103710002C87CE0107960E94861986E0F801ABE758
:10372000B1E001900D928A95E1F70E94551A0E942E
:10373000471A0DC0561729F14D875E878D859E85E6
:103740000E94021A81112CC0C8010E948619FF2410
:10375000F394D6C0282F207F69F77A2DB98AA88ADA
:103760006E2D89890E94071A8BE791E00E948619C5
:1037700086E0F60111928A95E9F70E94471AF12C2A
:10378000BFC04913D9CFE110D7CFF8018583C80155
:103790000E94861986E0F60111928A95E9F7B0C079
:1037A000EE2091F220918001822F82958F7090E01F
:1037B00002970CF4B2CF80917B0190917C019A83A7
:1037C00089831B82BD82AC822E83CE010196A3CF5A
:1037D000E83CF10508F047C0FE2CEE2009F4B4CF18
:1037E000561330C049132EC02091800120FD21C006
:1037F000822F82958F70482F50E041155105C9F0F6
:10380000F80125834F30510541F08F5F982F929535
:10381000907F822F8F70892B8583C8010E94861923
:1038200086E0F801ABE7B1E001900D928A95E1F7EF
:1038300042C086E0F801ABE7B1E001900D928A95B5
:10384000E1F75EC04D875E878D859E850E94021AD6
:10385000811163CF80918001816080938001C801D4
:103860000E9486194DC07A2DB98AA88A6E2D898941
:103870000E94071A86E0F60111928A95E9F71BC0AB
:10388000EE2009F461CF4D875E878D859E850E946D
:10389000021AF82E882309F457CF86E0F801ABE727
:1038A000B1E001900D928A95E1F78BE791E00E94DB
:1038B000B8160E94551A0E94471A22C04D875E878B
:1038C0008D859E850E94871F292F22952F7022307B
:1038D00028F49F7039F0811105C00BC0243028F402
:1038E0009F7049F4805E883020F0C8010E948619DC
:1038F0009F2CF92C05C0F8019581907F99F7F9CF9D
:103900008F2D61960FB6F894DEBF0FBECDBFDF914D
:10391000CF911F910F91FF90EF90DF90CF90BF90CC
:10392000AF909F9008951F93CF93DF93CDB7DEB7ED
:103930002C970FB6F894DEBF0FBECDBF4F835887CC
:1039400069877A878B879C87CE0107960E94C11A68
:103950008823D1F09F8188852A853B85232B31F0F0
:103960008F3F31F481E09F3F19F403C081E001C033
:1039700080E080FD47C04F81588569857A858B85B9
:103980009C850E94161A3EC086E0FE013796DE0135
:10399000119601900D928A95E1F7FF81E8856A857D
:1039A0007B856115710531F0EF3F31F481E0FF3F18
:1039B00019F403C081E001C080E080FD23C02091A4
:1039C0004A0130E0C9010196877099274091490169
:1039D00050E084179507F1F1F983EA837D836C83C6
:1039E00096E0929FD001939FB00D1124A55BBE4F2E
:1039F000FE01319601900D929A95E1F780934A016C
:103A00000E94261A16E08091490190914A01891777
:103A100071F1189FC0011124855B9E4F0E94C11A4D
:103A2000882329F1E09149011E9FF0011124E55BF3
:103A3000FE4F4081518162817381848195810E9412
:103A4000161A8091490190E001968770992780931A
:103A50004901D9CF0E94DA1910924A011092490106
:103A6000EBE7F1E086E0DF011D928A95E9F72C96FD
:103A70000FB6F894DEBF0FBECDBFDF91CF911F917F
:103A80000895EF92FF920F931F93CF93DF938C01D2
:103A9000892B09F46CC0F12CEE24E394E801219603
:103AA000F8018491843740F4843008F051C08130AB
:103AB00081F0823019F15BC0853709F444C0A8F168
:103AC0009CE7980F903708F052C08F770E940C1730
:103AD00041C00E5F1F4FFE01849190E2980F983015
:103AE00050F48770FE2D01C0FF0F8A95EAF78F2FE3
:103AF0000E94EC1F14C00E94BE162DC00E5F1F4F07
:103B0000FE01849190E2980F983060F48770FE2D4A
:103B100001C0FF0F8A95EAF78F2F0E94F21F0E94C3
:103B2000172019C00E940C1716C00E5F1F4FFE0110
:103B3000C491CC2381F087EB9BE00197F1F700C0A3
:103B40000000C150F6CF0E5F1F4FFE01F49003C07E
:103B50000E94BE168E018F2D882309F49FCFE7EBBC
:103B6000FBE03197F1F700C000008150F5CFDF9105
:103B7000CF911F910F91FF90EF90089508950895B0
:103B80000C94BF1D0C94C01D0E94C21D6093D001F7
:103B90007093D1018093D2019093D3010C94C419F6
:103BA0000C94C41D0F931F930091D0011091D1016B
:103BB0002091D2013091D301602B712B822B932B5A
:103BC0001F910F910C94C41D0F931F930091D0016E
:103BD0001091D1012091D2013091D3016023712342
:103BE000822393231F910F910C94C41D0F931F9355
:103BF0000091D0011091D1012091D2013091D301D7
:103C000060277127822793271F910F910C94C41D61
:103C10000C94BF1D0E94081E6093CC017093CD01CF
:103C20008093CE019093CF010C94C41960E070E0B2
:103C3000CB010C940A1E611571058105910529F4CB
:103C400081E0442361F080E00895DC01CB0104C0F1
:103C5000B695A795979587954A95D2F7817008955F
:103C6000482F6091CC017091CD018091CE0190914F
:103C7000CF010C941B1E0F931F9341E050E060E0B6
:103C800070E08A019B0104C0000F111F221F331F27
:103C90008A95D2F7C901B8011F910F910C940A1EA1
:103CA0000F931F9341E050E060E070E004C0440FC8
:103CB000551F661F771F8A95D2F78091CC0190918E
:103CC000CD01A091CE01B091CF018A019B01082BBB
:103CD000192B2A2B3B2BC901B8011F910F910C9472
:103CE0000A1E0F931F9341E050E060E070E004C0B3
:103CF000440F551F661F771F8A95D2F74095509540
:103D0000609570958091CC019091CD01A091CE01EC
:103D1000B091CF018A019B01082319232A233B2359
:103D2000C901B8011F910F910C940A1E0F931F93A4
:103D300041E050E060E070E004C0440F551F661F92
:103D4000771F8A95D2F78091CC019091CD01A091F7
:103D5000CE01B091CF018A019B01082719272A279C
:103D60003B27C901B8011F910F910C940A1E0F93B4
:103D70001F930091CC011091CD012091CE01309183
:103D8000CF01602B712B822B932B1F910F910C94E1
:103D90000A1E0F931F930091CC011091CD01209129
:103DA000CE013091CF0160237123822393231F9191
:103DB0000F910C940A1E0F931F930091CC01109148
:103DC000CD012091CE013091CF016027712782274C
:103DD00093271F910F910C940A1E08952FE0929F34
:103DE000800D1124E82FE695E695E695877051E061
:103DF00001C0550F8A95EAF785E0E89FF00111248C
:103E0000EF57FE4F20E030E070E04081CB01022E02
:103E100002C0969587950A94E2F781708195842770
:103E20008523842781932F5F3F4F2530310569F724
:103E300008952FE0929F800D1124682F6695669556
:103E40006695982F977085E0689FB001112440E037
:103E500050E080E0FB01E40FF51FEF57FE4F20819B
:103E600030E0092E02C0369527950A94E2F72170BA
:103E70003327042E01C0220F0A94EAF7822B4F5FEA
:103E80005F4F4530510531F70895BF92CF92DF92D1
:103E9000EF92FF920F931F93CF93DF938C01C0900B
:103EA000CC01D090CD01E090CE01F090CF01809177
:103EB000D0019091D101A091D201B091D301C82A33
:103EC000D92AEA2AFB2ACFE1D0E0D701C6010C2E7D
:103ED00004C0B695A795979587950A94D2F780FD6B
:103EE00004C0219790F7B12C07C0BC2EB8018C2FCD
:103EF0000E94EB080197A9F38B2DDF91CF911F91C1
:103F00000F91FF90EF90DF90CF90BF900895CF93E7
:103F1000DF93EC010E94451FBE010E94EB08DF9178
:103F2000CF9108951F93CF93DF93EB0190914801B8
:103F3000992321F0CB010E94871F13C0882349F0E9
:103F4000CB010E94451F182F682FCE010E94EE1E44
:103F500004C0CB010E94191F182FBE01812F0E949F
:103F6000EB08DF91CF911F9108958091D401859541
:103F70008595859508958091D401877008959091D5
:103F8000D401977081E009F480E008958091E00108
:103F900008959091E001892B8093E0010895809528
:103FA0009091E00189238093E00108958093E001DE
:103FB00008951092E00108959091DF01892B80937C
:103FC000DF01089580959091DF0189238093DF01BF
:103FD00008951092DF0108959091DE01892B80935E
:103FE000DE01089580959091DE0189238093DE01A2
:103FF00008951092DE0108958091D50108950895E5
:104000000C94FF1F0C9400209091D501981721F07B
:104010008093D5010C94022008958091D5018823C6
:1040200029F01092D50180E00C9402200895E091CF
:104030006600F09167008091E0018083E091660066
:10404000F091670090818091DF01892B8083E0915E
:104050006600F091670090818091DE01892B80835A
:104060008091D501882381F0E0916600F09167008E
:104070009081892B808380916600909167000E94D7
:10408000212181110E940D2080916600909167008E
:104090000C947C150C94FF1F98E0899F90011124CB
:1040A000262B2093D4010E94501E8091D401859527
:1040B000859585950C944A201092D40180E00C944B
:1040C0004A202091D401809582238093D401982F97
:1040D000977079F430E0482F082E000C550B241708
:1040E000350739F08595859585950E94711E0C944C
:1040F0005C20089580E090E00E94912721E08C3EB2
:104100009E4F09F020E0822F089582E090E00C9409
:10411000832783E090E00C948327CF9384E090E0A2
:104120000E948327C82F81E290E00E9483272C2FD2
:1041300030E0A901582BCA01CF910895CF93C92F20
:10414000682F84E090E00E9497276C2F81E290E036
:10415000CF910C949727AB01BC018FE090E00C94B9
:10416000A827AB01BC0183E190E00C94A82760E094
:1041700070E0CB010C94B12060E070E0CB010E94B4
:10418000AB200C94B7206CEE7EEF80E090E00E94B4
:10419000B42760E082E090E00E94972760E083E02F
:1041A00090E00E9497271092D0011092D1011092B6
:1041B000D2011092D30160E084E090E00E94972742
:1041C00060E081E290E00E94972760E085E090E067
:1041D0000E94972760E086E090E00E9497276FEFAB
:1041E00087E090E00E94972740E050E0BA0188E025
:1041F00090E00E94A82760E08DE090E00E94972761
:1042000040E050E0BA0188E190E00E94A82760E019
:1042100087E190E00E94972740E050E0BA018CE1EE
:1042200090E00E94A82760E080E290E00E9497273B
:104230000C94BC200C94C320682F8EE090E00C946A
:104240009727FC01329697E080E0915029F0219168
:104250002223D9F38F5FF9CF0895662349F0FC013B
:10426000329608962191621729F0E817F907D1F7DD
:1042700080E0089581E008959C01FC0132969FEF53
:1042800080E04191461789F09F3F19F4411101C028
:10429000982F8F5F8630A9F79F3F39F0F901E90F1A
:1042A000F11D97FDFA956283089508959C012A5F98
:1042B0003F4FFC014281461301C0128201968217D2
:1042C0009307B9F708950C943C210C94562102965B
:1042D00026E0FC0111922A95E9F7089508950C94BF
:1042E0006E210C946E21CF930E9471210E943D0B90
:1042F0000E946F21C0E08C2F0E94D40A892B29F4E0
:10430000CF5FC830C1F780E001C081E0CF91089550
:104310008BE083BF8BEB8CBF82E089BF08952FB702
:10432000F8948091D4029091D502A091D602B091D8
:10433000D7022FBF08959C014FB7F8948091D40203
:104340009091D502A091D602B091D7024FBF821BA7
:10435000930B089578941F920F920FB60F92112429
:104360008F939F93AF93BF938091D4029091D50286
:10437000A091D602B091D7020196A11DB11D8093E4
:10438000D4029093D502A093D602B093D702BF91E6
:10439000AF919F918F910F900FBE0F901F90189526
:1043A00060E081E090E00E94BA2787E090EBDC01BA
:1043B00080932A0390932B03A0932C03B0932D0397
:1043C0009CE088E10FB6F894A89581BD0FBE91BD21
:1043D000FFCF0E947A20811102C00E941A210E9400
:1043E00085208093E1010E948D209093D9028093D3
:1043F000D8020E948920682F70E080E090E00E943F
:10440000D01D6091CC017091CD018091CE01909131
:10441000CF010C94081E0F931F93CF93DF930E943C
:104420008F218C010E94C1150E9402230E946B15EE
:104430000E94E1248B9A80E0815041F0A895E7EB3F
:10444000FBE03197F1F700C00000F6CF8B9878942D
:10445000FFEB24ED31E0F15020403040E1F700C0A7
:1044600000000E94CB15C0E0DCE0809101038823AE
:1044700031F0109201030E948F218C0107C0C80106
:104480000E949B21069788F4C1110FC00E94EA2365
:1044900080910703882329F08091E50284FD0E9422
:1044A000D5150E94A922C0E0E0CF0E94732181119E
:1044B00002C0C1E0DACFF89491B3939A892F8C604F
:1044C00081BB82B38D2782BB8FE5EAEEF0E081509D
:1044D000E040F040E1F700C0000082B38D2782BBCE
:1044E00091BB93987894E5CF8091730208950895D5
:1044F000CF93DF9300D01F92CDB7DEB79091E40148
:10450000981307C02091E2013091E3012617370785
:1045100091F08093E4017093E3016093E201898359
:104520007B836A8380911E0384FF05C063E0CE0114
:1045300001960E94E6230F900F900F90DF91CF918C
:104540000895BC0184E00C947822BC0183E00C94B3
:104550007822CF93DF93CAE0D0E08091E50284FF18
:1045600018C08091F0019091F1019817E1F028E0D6
:10457000829FC001112468E08E509E4F0E94E2236A
:104580008091F00190E001968F7099278093F0015F
:104590000AC00E94EA2387EB9BE00197F1F700C075
:1045A00000002197D1F6DF91CF910895CF93DF934B
:1045B000EC01A091F101B0E0CD0101968F70992737
:1045C0002091F001281779F093E0AA0FBB1F9A956C
:1045D000E1F7AE50BE4F98E0FE0101900D929A9522
:1045E000E1F78093F1010E94EA230E94A92288E06A
:1045F000FE01A8EEB1E001900D928A95E1F7DF91FE
:10460000CF91089588E690E00895FC01808180763E
:104610008032A1F58181813061F484819581892B7B
:1046200069F588EE91E0909303038093020388E09C
:104630000895823041F482E792E0909303038093DF
:10464000020381E008958A3021F48381809372020D
:1046500015C0893099F4828193818115924081F44B
:1046600084819581892B61F481E08093E7018681C3
:1046700097819093E6018093E50102C080E0089560
:104680008FEF08952091E5013091E601232B71F021
:104690002091E701213051F4FC0180818093730265
:1046A0001092E6011092E50181E008958FEF0895E0
:1046B0000895FC0193819330B1F068F4913081F05A
:1046C000923009F05BC08AEA97E0909303038093ED
:1046D00002038BE30895913259F19232C9F14EC031
:1046E00085EE97E019C08281813061F040F0823020
:1046F00089F0833009F042C087EF97E013C08BE266
:1047000098E010C081E198E0909303038093020346
:1047100088E108958DEF97E090930303809302035F
:1047200082E10895909303038093020384E0089547
:104730008281882329F0813009F585ED97E002C058
:104740008CEB97E0909303038093020389E0089534
:1047500084819581009751F0019781F48FE298E070
:10476000909303038093020382E3089581E698E027
:10477000909303038093020380E4089580E00895FA
:104780001F93CF93DF93162FEA01288124FF05C0E2
:10479000398128E82327298302C02AE52883212F8D
:1047A000FC01CE010296DC0131913D93215012169D
:1047B000DCF3612F0E94AC041C5F1883DF91CF9162
:1047C0001F91089545EE52E00C94C0234EE153E052
:1047D0000C94C023CF93DF9360910403635067FD73
:1047E00093C080910003CCE0D0E0C81BD109C85F22
:1047F000DC4F8091FF02803120F4CE010E945823CB
:1048000081C08D3209F06EC0683009F07BC083EC46
:104810008093DA028AE5809373001092FE02888109
:10482000807621F0CE010E94052349C09A81109222
:10483000E3028981811106C01092E40223EE32E086
:1048400082E038C0853019F49093050330C086307B
:10485000A1F48B81813041F0823031F0833021F03E
:10486000813211F0823221F4CE010E94592301C01D
:1048700080E090E49093FE0222C0883089F0893075
:1048800019F49093070313C08A3069F08B3079F4E0
:104890008BE48093E60280931F038093F20207C0AB
:1048A00027E033E002C023EE32E081E003C023EED4
:1048B00032E080E0309303032093020309C08F3F6E
:1048C00039F4988197FD8E8190E89093FE0207C09D
:1048D0009F81911104C09E81981708F4892F8093BD
:1048E000720010C08091FE0287FF0CC0CE010E94B2
:1048F00042238F3F21F48EE18093730003C0811126
:1049000010927200109204038091730084FF4CC0D7
:10491000809172008F3F09F447C0C82F893008F09A
:10492000C8E08C1B809372009091DA0288E8892796
:104930008093DA02CC2359F1809102039091030312
:104940002091FE0226FF12C0AAEDB2E02C2FAC018E
:104950004A5D5240FA01EA0FFB1FE4911196EC9375
:104960001197215011962111F5CF08C0EBEDF2E01F
:10497000DC012C2F3D9131932150E1F701962FEF6F
:104980002C0F820F911D90930303809302036C2FD1
:104990008BED92E00E94AC04CC5FCC3019F08FEF2D
:1049A00080937200C093730084E190B39C7031F4E3
:1049B0008150D9F7109205031092FD02DF91CF913B
:1049C0000895CF93DF9385B7886085BF8BB78068E4
:1049D0008BBFC5EED2E08BE48983AEE1B3E01196E4
:1049E0008C931197E1EFF2E081838AE588838C93C1
:1049F0008083DF91CF9108955058BB27AA270E944A
:104A000014250C945E260E94502638F00E945726EA
:104A100020F039F49F3F19F426F40C944D260EF43F
:104A2000E095E7FB0C944726E92F0E946F2658F388
:104A3000BA17620773078407950720F079F4A6F583
:104A40000C9491260EF4E0950B2EBA2FA02D0B019D
:104A5000B90190010C01CA01A0011124FF27591BC3
:104A600099F0593F50F4503E68F11A16F040A22FC9
:104A7000232F342F4427585FF3CF4695379527953A
:104A8000A795F0405395C9F77EF41F16BA0B620B39
:104A9000730B840BBAF09150A1F0FF0FBB1F661F80
:104AA000771F881FC2F70EC0BA0F621F731F841FC3
:104AB00048F4879577956795B795F7959E3F08F0E9
:104AC000B0CF9395880F08F09927EE0F97958795AB
:104AD00008950E947D250C945E260E94572658F06A
:104AE0000E94502640F029F45F3F29F00C9447269D
:104AF00051110C9492260C944D260E946F2668F357
:104B00009923B1F3552391F3951B550BBB27AA2786
:104B100062177307840738F09F5F5F4F220F331FC0
:104B2000441FAA1FA9F335D00E2E3AF0E0E832D088
:104B300091505040E695001CCAF72BD0FE2F29D08B
:104B4000660F771F881FBB1F261737074807AB075D
:104B5000B0E809F0BB0B802DBF01FF2793585F4FD2
:104B60003AF09E3F510578F00C9447260C9492261B
:104B70005F3FE4F3983ED4F3869577956795B795B4
:104B8000F7959F5FC9F7880F911D9695879597F9BF
:104B90000895E1E0660F771F881FBB1F6217730738
:104BA0008407BA0720F0621B730B840BBA0BEE1F4D
:104BB00088F7E09508950E94772688F09F5798F02F
:104BC000B92F9927B751B0F0E1F0660F771F881F12
:104BD000991F1AF0BA95C9F714C0B13091F00E942C
:104BE0009126B1E008950C949126672F782F88279D
:104BF000B85F39F0B93FCCF3869577956795B39553
:104C0000D9F73EF490958095709561957F4F8F4FC1
:104C10009F4F0895E89409C097FB3EF490958095C6
:104C2000709561957F4F8F4F9F4F9923A9F0F92F72
:104C300096E9BB279395F695879577956795B795F0
:104C4000F111F8CFFAF4BB0F11F460FF1BC06F5FD6
:104C50007F4F8F4F9F4F16C0882311F096E911C0E8
:104C6000772321F09EE8872F762F05C0662371F009
:104C700096E8862F70E060E02AF09A95660F771F1D
:104C8000881FDAF7880F9695879597F9089597F911
:104C90009F6780E870E060E008959FEF80EC0895E2
:104CA00000240A941616170618060906089500240B
:104CB0000A9412161306140605060895092E039485
:104CC000000C11F4882352F0BB0F40F4BF2B11F4F9
:104CD00060FF04C06F5F7F4F8F4F9F4F089557FD58
:104CE0009058440F551F59F05F3F71F04795880F5A
:104CF00097FB991F61F09F3F79F0879508951216F1
:104D000013061406551FF2CF4695F1DF08C016169C
:104D100017061806991FF1CF86957105610508944D
:104D20000895E894BB2766277727CB0197F9089564
:104D30000E940A2708F48FEF08950E94B0260C9471
:104D40005E260E94502638F00E94572620F09523B8
:104D500011F00C9447260C944D2611240C949226A5
:104D60000E946F2670F3959FC1F3950F50E0551F79
:104D7000629FF001729FBB27F00DB11D639FAA27B0
:104D8000F00DB11DAA1F649F6627B00DA11D661FFF
:104D9000829F2227B00DA11D621F739FB00DA11D20
:104DA000621F839FA00D611D221F749F3327A00DDA
:104DB000611D231F849F600D211D822F762F6A2F76
:104DC00011249F5750409AF0F1F088234AF0EE0FDB
:104DD000FF1FBB1F661F771F881F91505040A9F708
:104DE0009E3F510580F00C9447260C9492265F3F1D
:104DF000E4F3983ED4F3869577956795B795F79544
:104E0000E7959F5FC1F7FE2B880F911D96958795BB
:104E100097F90895990F0008550FAA0BE0E8FEEFE7
:104E200016161706E807F907C0F012161306E4076E
:104E3000F50798F0621B730B840B950B39F40A2667
:104E400061F0232B242B252B21F408950A2609F445
:104E5000A140A6958FEF811D811D089587FB082E27
:104E6000062687FD819567FD61950E946A270EF4ED
:104E7000919507FC81950895AA1BBB1B51E107C0C2
:104E8000AA1FBB1FA617B70710F0A61BB70B881FDA
:104E9000991F5A95A9F780959095BC01CD01089569
:104EA00097FB072E16F4009407D077FD09D00E94D7
:104EB0003C2707FC05D03EF4909581959F4F0895BF
:104EC000709561957F4F0895EE0FFF1F0590F49147
:104ED000E02D0994991B79E004C0991F961708F0FA
:104EE000961B881F7A95C9F780950895FC0141505B
:104EF000504030F001900616D1F73197CF01089558
:104F0000882799270895E199FECF9FBB8EBBE09A31
:104F100099278DB30895A6E1B0E044E050E00C94E9
:104F2000C927A8E1B0E042E050E00C94C927262F41
:104F3000E199FECF9FBB8EBBE09A01970DB202169E
:104F400031F02DBB0FB6F894E29AE19A0FBE0895A6
:104F50000396272F0E9498270E949727252F0E94AB
:104F60009827242F0C9498270196272F0E94982782
:104F70000C949727262FE199FECF9FBB8EBB2DBBAC
:104F80000FB6F894E29AE19A0FBE01960895DC01FB
:104F9000CB01FC01E199FECF06C0FFBBEEBBE09A5E
:104FA00031960DB20D9241505040B8F70895F894E3
:024FB000FFCF31
:104FB200001200121201D6017422D6227722A522F3
:104FC200A122FF5AE2898800CF8000C2B100E284A8
:104FD200A200CEA900E289A400E289A500E382B47E
:104FE20000E200E900EA00B500B600B700CD008398
:104FF20001CC008A0192019401210223022402259C
:1050020002260227022A02B300B4006F0070008158
:1050120082839091929394959697373635343332B2
:10502200076061626364656667000102020202064C
:1050320006060909090909090F0F0F0F0F0FE200F0
:10504200E900EA00B500B600B700CD008301CC004C
:105052008A019201940121022302240225022602DE
:1050620027022A02B300B4006F007000818283001D
:00000001FF
