:100000000C94B0040C94CD040C94E8040C94CD042E
:100010000C94CD040C94CD040C94CD040C94CD041C
:100020000C94CD040C94CD040C946F160C94CD0458
:100030000C94CD040C94CD040C94CD040C94CD04FC
:100040000C94CD040C94CD040C94CD040C94CD04EC
:100050000C94CD04390B550B600B9F0C9F0C9B0B24
:10006000B30BC20B0E0C130C3C0C5F0C8E0C910CE2
:10007000643214643214783C1E1E140A05FD377A6B
:10008000585A000004E6D6B44602002101160000CA
:1000900000742FE5A3E008C002795D003D888986E1
:1000A000D3DC0AE842C324925842588FD8E75CA0B8
:1000B000D2616E26E888019A676C7887BC8D370913
:1000C000EA511D70D2DBC0939A2F4A2F03BE282E0F
:1000D000D15B121C51A8974F325CCDDDC399B6910C
:1000E000C494B813DA102FB31936D8D69FB475F26A
:1000F000C4493D72B974A0D618CE33D57176E7B530
:10010000AE8B38718FE733AE723B5431B4E219AE27
:1001100003BEF63300CA84035B967B09520ED17F7F
:1001200009C6AE0D9B77FB3B74077DBAA9B4D3110A
:1001300055117B6F229B9D64B555FFF41BF5116330
:1001400050206AA3C38A018A5F357C59945B22C41C
:100150005B8DFDAEDBEFE3E82B76A31D07C1F863F3
:10016000E7A4B23BE87D2FA595178075EF02EB3928
:100170000BC3EDBD50E9D9F09C14107DA0F8E15FF0
:10018000F10F1C6DA3F9A1E781427AF9FCA77C8AE3
:10019000B53727F5FFA8406AB38C383DB37A716D47
:1001A000CEE27BF4F674230396E8D9BCA07B16BAA2
:1001B000F38FC4EAE589319555491A2D8B99586713
:1001C000E822FC114FDA014F7D2232EA9F4916FAEC
:1001D0007C5FF3C3FC78F68B83981A7028353E8ECB
:1001E000BA6952942F91D281E3A1F1409DF6D32AAE
:1001F000619F336D52E1776DAF227524207C97B0FB
:100200001D41261D1D4E0AA30DEC7D2D1661D664E1
:10021000F9AEDFF1E2BADFB50B8D8043F785919936
:100220001827FCC9E6A4D977264AE8FEC85F18BF9C
:1002300079B612647DB76D9C5216D489BCCF1E244A
:100240009680222F596E76EE03AB54A9CEB4967EDB
:10025000EB2AF9F39BD51218EEFE893454E7E4DC5F
:100260004E1164BBE2490FAC1FFD97EAA466057905
:10027000870C6D7EFF7BF8B7995990FC330C2E23C9
:10028000CE36E383BCF5E3AA03474F5ABE1C0DD715
:100290009A50120957E2B58E2C6569E844037E3AFC
:1002A0003FE4A744C4B1F4F4727BD2620D0ABBE60A
:1002B00093CE6390C977A4F7630CC6C8CC41D956D6
:1002C00010EEAEAEA756BE32C90D7450A072EE84C9
:1002D0006558CE22D0DED48114B1D97C608D5C8A81
:1002E000879E2F7B6ED8D2EE56E8A5B6543E96A3D5
:1002F0007DDB53519C5B0490CCCACCF1F8C9B1941E
:10030000DA02B2CE67986DD73DFF28AFC5F9E8EDA8
:10031000D07427DB00000000001396DFAFBBE43C85
:100320008900019505C1110000799C0B95B1C46746
:10033000FB020000000004595AE000E300E2000064
:10034000000000000062000000630058000000018F
:1003500051000049000000E1001D001B00060019CB
:1003600000050059005A005B0000003800E500005D
:100370000046000000390004001600070009000ACA
:10038000005C005D005E0057003300340000002870
:100390000053002B0014001A000800150017005F1E
:1003A0000060006100560013002F00300031000093
:1003B0000035001E001F002000210022004D004ECD
:1003C000005400550027002D002E0000002A0029AF
:1003D0000000003A003B003C003D0000000000002F
:1003E000000000000042004300440045003E00239E
:1003F000001C000B0011002C005000510052004F57
:10040000003F00240018000D0010004100260012DB
:10041000000F003700E6004A0000004B0054004087
:100420000025000C000E0036000100010001000054
:1004300000000000000100000001000100000001B8
:1004400000000001000000010001000100010001A6
:100450000001000100010001000000010001000096
:1004600000010000000100C45CC65CC85CCA5CCC32
:100470005C01000100010001000100010000000119
:10048000000100C25CC35CC55CC75CC95CCB5C019D
:100490000001000100010001000100010001000055
:1004A00000BF5CC05CBB5CBC5CBE5CBD5C010001B1
:1004B0000001000100010001000100000001000036
:1004C0005C0000DE5C010001000100000000000093
:1004D000000000000001000100010001000100C156
:1004E0005C010001000100010001000100010001A8
:1004F00000010001000100010001000100010001F4
:1005000000010001000100010000000100010001E4
:10051000000100010001000100010001002F01BAEB
:10052000139F130000020002002B01BA139F130057
:1005300000030001003001BA139F13000004000201
:10054000001501BA139F13D212050001003101BA40
:10055000139F130000060002001701BA139F130037
:1005600000070002002D01BA139F130000080001CC
:10057000003201BA139F130000120002003301BAC7
:10058000139F130000130002003501BA139F1300DC
:1005900000140001003701BA139F1300001500007A
:1005A0000000005512FD1200000660FF0961A10164
:1005B0000962150026FF0095207508810209631560
:1005C0000026FF00952075089102C005010906A1CB
:1005D00001050719E029E715002501950875018136
:1005E000029501750881030507190029FF150026EA
:1005F000FF00950675088100050819012905950574
:1006000075019102950175039103C01C0376006981
:100610000061006C003A006600360034006300326E
:1006200000620033006300000012034200750064A2
:1006300000670065007400390036000000180344AC
:10064000006F006E00750074004300610062006C72
:10065000006500730000000403090409024200025F
:100660000100A0FA090400000103010100092101B1
:10067000010001224000070581030800010904016F
:1006800000020300000009210101000122220007ED
:100690000584030800010705040308000112011086
:1006A0000100000008434460B90002010203010098
:1006B000000000000000000000000000000000003A
:1006C000000000000000000000000000000000002A
:1006D0000000007E0F00D4FFFFFFC700000078007D
:1006E000000000000000002A2B280000000000008D
:1006F0000000000000000000000029000000002CA5
:100700001E3420212224342627252E362D37382743
:100710001E1F202122232425263333362E37381F4F
:100720000405060708090A0B0C0D0E0F1011121311
:100730001415161718191A1B1C1D2F3130232D35AF
:100740000405060708090A0B0C0D0E0F10111213F1
:100750001415161718191A1B1C1D2F3130354C2271
:1007600023252628292A2C2D2F3032333536383AA6
:100770003B3D3E4042434547494A4C4E50515355FC
:1007800057595A5C5E6062646668696B6D6F71731D
:100790007577797B7D7F81838587898A8C8E90921E
:1007A0009496989A9C9E9FA1A3A5A7A8AAACAEAF29
:1007B000B1B3B4B6B8B9BBBCBEBFC1C2C3C5C6C76E
:1007C000C9CACBCCCDCED0D1D2D2D3D4D5D6D7D71F
:1007D000D8D9D9DADADBDBDBDCDCDCDCDCDDDDDD67
:1007E000DDDCDCDCDCDCDBDBDBDADAD9D9D8D7D763
:1007F000D6D5D4D3D2D2D1D0CECDCCCBCAC9C7C610
:10080000C5C3C2C1BFBEBCBBB9B8B6B4B3B1AFAE4D
:10081000ACAAA8A7A5A3A19F9E9C9A9896949290F3
:100820008E8C8A89878583817F7D7B7977757371CB
:100830006F6D6B6968666462605E5C5A59575553A8
:1008400051504E4C4A4947454342403E3D3B3A3861
:1008500036353332302F2D2C2A2928262523220005
:100860000101010101010101010202020202020271
:100870000202030303030303030304040404040444
:10088000040505050505060606060607070707070A
:1008900008080808090909090A0A0A0B0B0B0C0CBD
:1008A0000C0D0D0D0E0E0E0F0F0F10101111111259
:1008B0001213131414151516161717181819191AD8
:1008C0001A1B1B1C1D1D1E1E1F202021222223243B
:1008D00024252626272829292A2B2C2D2D2E2F307A
:1008E000313232333435363738393A3B3C3D3E3F8E
:1008F000404142434445464748494A4C4D4E4F507B
:10090000515354555658595A5B5D5E5F6162646538
:100910006668696B6C6D6F7072737577787A7B7DC2
:100920007E8082838587888A8C8E8F919395969816
:100930009A9C9EA0A2A3A5A7A9ABADAFB1B3B5B732
:10094000BABCBEC0C2C4C6C9CBCDCFD1D4D6D8DB09
:10095000DDDFE2E4E7E9EBEEF0F3F5F8FAFDFF00A6
:1009600011241FBECFE5D8E0DEBFCDBF10E0A0E66A
:10097000B0E0ECE6F5E402C005900D92A63AB107AE
:10098000D9F722E0A6EAB0E001C01D92A63CB2076A
:10099000E1F70E9442060C94B4220C940000A82FA8
:1009A000B92F80E090E041E050EA609530E009C066
:1009B0002D9182279795879510F084279527305E93
:1009C000C8F36F5FA8F30895EADF8D939D930895B0
:1009D000CF93CFB7CF93C395839BE9F7839B0EC08B
:1009E000839B0CC0839B0AC0839B08C0839B06C06B
:1009F000C0917A02C395C0937A02A6C0DF93C091DA
:100A0000A102DD27CC55DD4F839B02C0DF91E6CFED
:100A10002F930F931F9300B32FEF03FB20F94F93F6
:100A20003F9310B34FEF012703FB21F93BE031C0A7
:100A30004E7F012F10B3216028C0102F4D7F226000
:100A4000000000B329C04B7F2460012F000010B3C9
:100A50002BC010B3477F28602AC04F7E00B32061AF
:100A60002CC04F7D10B320622FC04F7B00B3206499
:100A700032C0422700B349934FEF0000102713FB09
:100A800020F910B31C70C9F1297F91F2012703FBF3
:100A900021F900B3237F89F2315058F1102713FB5D
:100AA00022F910B3277E79F2012703FB23F92F7C6B
:100AB00081F200B3102713FB24F92F7971F200C0E3
:100AC00010B3012703FB25F92F7359F200C000B3BF
:100AD000102713FB26F9223040F200C010B3012783
:100AE00003FB27F9243028F64F77206810B3000065
:100AF000F9CF10E81ABF00271CC03B503195C31B2B
:100B0000D04010E81ABF0881033C11F10B3401F109
:100B100020919F021981110F1213EDCF4A81441FBA
:100B2000093669F10D3211F0013E29F74F7009F0D5
:100B3000042F00937B023F914F911F910F912F91B2
:100B4000DF91CAB7C7FD47CFCF91CFBFCF911895DF
:100B500020917B02222379F31091A202112309F044
:100B600044C034300AF443C03093A2022093A00260
:100B70001091A1023BE0311B3093A10238C00091DB
:100B8000A202013094F50AE54F7049F430917000EB
:100B900034FD2FC000937000CCE7D2E02EC043306C
:100BA00059F0443091F03091870234FD22C0009317
:100BB0008702C8E8D2E021C03091BA0234FD19C0E2
:100BC0000093BA02CBEBD2E018C03091930234FD0F
:100BD00010C000939302C4E9D2E00FC02795A8F497
:100BE0005150A9F4220F0000F9CF4AE503C042EDAD
:100BF00001C0432FC4E1D0E032E011B31C60939AEE
:100C000011BB02B320E41CE05F93012756E002BB56
:100C1000279520F4515021F4220FF9CF012756E0F7
:100C200000003B5A02BBD0F2279528F4515029F41A
:100C3000220F0000F9CF012756E0279502BB20F4D0
:100C4000515021F4220FF9CF012756E02991332387
:100C500002BB21F6037F1091A302110FC651D040B1
:100C600002BB11F010939F0210E81ABF086011B385
:100C7000137F402F437F5F9100C000C002BB11BBB8
:100C800042BB59CFA4E1B0E0E8E4F6E00C94BB210C
:100C900084B7806884BF84B7806884BF0E94B01620
:100CA0009093E8008093E7008EE998E19093A70085
:100CB0008093A6000E94C71785B7886085BF8BB751
:100CC00080688BBF8BE4809388028093BB02809303
:100CD00094028AE5809387028093BA0280939302FC
:100CE0008B9A80E0815041F0A895A7EBBBE011976B
:100CF000F1F700C00000F6CF8B9878948BE083BFAB
:100D00008BEB8CBF82E089BF0E94BE1D811102C0A7
:100D10000E94AE1D0AE710E092E8E92E90E0F92E5D
:100D2000F80181918F018F3F11F00E94A018E01609
:100D3000F106B1F702E810E081E9E82E80E0F82E34
:100D4000D8018D918D018F3F11F00E94A018E016FF
:100D5000F106B1F780E1E6EDF0E0DF01282F1D920A
:100D60002A95E9F7E8EAF0E0DF011D928A95E9F7B4
:100D70000E94281A811102C00E94341A82E090E079
:100D80000E94FB218093BB0084E090E00E94FB2145
:100D9000182F82E290E00E94FB21212F30E0382BB7
:100DA0003093F2002093F1000E945E1CEFE2F5E721
:100DB0003197F1F700C000000E945E1C8091D600C0
:100DC00080FF08C06FEF7FEF80E090E00E942C2250
:100DD0000E94611683E090E00E94FB210E94591B53
:100DE000889A9098899A91988091B800811133C01F
:100DF0000E94281A811104C00E94341A0E944820BF
:100E000088E090E00E94032260937502709376025E
:100E100080937702909378026E7F71F40E9448204D
:100E200088E090E00E94032260937502709376023E
:100E300080937702909378020E94222010923C02C5
:100E40008091750280FF04C060E086950E94B71F04
:100E500081E08093B80080E690E090933E0180931B
:100E60003D01FFEB24ED31E0F15020403040E1F74F
:100E700000C0000044244394512CB9EAAB2EB5E0E5
:100E8000BB2E12E3612E712C80917A028823A9F087
:100E900010927A020E94B0169093E8008093E700C7
:100EA0008091E6008823A1F11092E6001092F400F0
:100EB0000E94601B0E94BC1610C08091E600811148
:100EC00012C08091E7009091E8000E949516069765
:100ED000F8F041E04093E60080E00E940E0D809122
:100EE000E6008823A9F081E08093E60080E00E947C
:100EF0000E0D0E945E1CE6EDF0E086EE90E0219182
:100F00003191232B09F020C58E179F07C1F7BCCF65
:100F10000E9488148091CF01882309F419C180911F
:100F2000870284FF15C10E945E1C0CEB10E0A6ED49
:100F3000B0E0BC8BAB8BF801219131918D919D91EB
:100F40008227932720E0EC3CF20719F0892BA1F3CC
:100F500022C0892B01F50E94B0168C018091B90046
:100F60009091BA000817190709F454C08FEF8987C8
:100F70008A871B860E94B0168160782F9D878C8798
:100F800049855A856B858D850E94500D1093BA0056
:100F90000093B9003FC0312CAB89BC898D909D90E6
:100FA000BC8BAB8BF801C080D180C824D924C1147C
:100FB000D10441F1212CEE24E394F12CC6018E21C1
:100FC0009F21892BB1F02E863F8621E0C4018E211E
:100FD0009F21892B09F420E0288B0E94B0168160A4
:100FE000782F9A8B898B4E855F8568898A890E94C4
:100FF000500D2394EE0CFF1CFFE02F12DFCFD80121
:101000008D929C9233940E5F1F4FB8E03B12C4CF79
:101010000E94A4168091300180FF1EC080916E0056
:1010200082FF1AC00E94B0162091390130913A0116
:10103000AC01421B530B20916C0030916D004217A4
:10104000530750F02CEC30E041E0BC0180913B01B3
:1010500090913C010E94011780913C02882309F481
:1010600069C080913B02E0917502E695E81BE09330
:101070003702823059F4F0E0E758FF4FE4910E2F29
:1010800010E079ECE72E7EE1F72E2FC0863059F480
:10109000F0E0EA58FF4FE4910E2F10E069EBE62EE6
:1010A0006EE1F62E22C0893061F4E695F0E0ED584D
:1010B000FF4FE4910E2F10E056E6E52E5EE1F52E8F
:1010C00014C08F3061F4E695F0E0E059FF4FE491F1
:1010D0000E2F10E041E0E42E4EE1F42E06C000EDAC
:1010E00017E030E1E32E3DE1F32E809138028823B2
:1010F00061F0109238020E94B016909336028093ED
:10110000350210923A02109239020E94B016E09114
:101110003502F09136028E1B9F0B8F3F9F4750F494
:101120000E0F1F1F109336020093350285E392E0E5
:10113000F70109950E94BC16182F8091D10018174D
:1011400039F01093D1000E94A416812F0E940E0D39
:101150000E9406160E9488148091CF01882309F40A
:1011600093CE8091930284FF8FCE8091C50180320F
:1011700009F08ACE0091EF001091F0008091D70124
:101180000115110569F08E3F09F0D9C38091D8018E
:10119000833008F461C28550833008F0D0C35CC24C
:1011A0008B3009F444C2B0F5853009F48EC0E0F408
:1011B000823009F44BC038F4813009F0BDC310927D
:1011C000D80189E028C3833009F46DC0843009F068
:1011D000B3C34091DA016091D9018091D8010E9496
:1011E0005C1D9093DB01D4C3873009F481C008F4FF
:1011F0007CC0883009F4C5C0893009F09DC3609176
:1012000075027091760280917702909178020E9427
:10121000352095C3803109F441C160F48D3009F463
:10122000D6C008F4D2C08E3009F4D6C08F3009F48D
:1012300002C182C3823109F438C108F432C183315A
:1012400009F461C18E3F09F407C276C38091D801C9
:10125000823009F493C3833071F0813009F06CC39C
:101260000E94A4169093D9018093DA017093DB0158
:101270006093DC0164C38091EB009091EC00892BBA
:1012800009F45DC3A6EDB0E0E7EDF1E08C911196B5
:101290009C911197129692838383329621E0E73EC8
:1012A000F207A1F74CC38091D801823009F044C302
:1012B0006091D9017091DA018091DB019091DC019C
:1012C0000E9477220E948A1D3AC32091DB0130914F
:1012D000DC013227232732274091DA016091D901BE
:1012E0008091D8010E94351D2AC30E94591827C336
:1012F0008091D8018138C9F058F4803809F01FC3B3
:1013000020E04091D901609177028091760236C049
:10131000823879F1833809F012C320E040917802D5
:101320006091DA018091D90129C060E08091D901F2
:101330000E94B71F9091D90180917502911111C03F
:101340008E7F8093750210923C023FEB44ED81E06A
:10135000315040408040E1F700C000000E94DE1D97
:10136000EEC281608093750260E086950E94B71F8F
:10137000E6C28091D90180937902E1C20E94DD1E0C
:10138000DEC28091D8018138A9F030F4803809F0AC
:10139000D6C2809178023FC28238A1F0833809F02A
:1013A000CEC2809176028093D9018091770280939A
:1013B000DA01C5C28091750280FF02C086952BC2FA
:1013C00080E029C28091790226C280E16BC091E061
:1013D0009093D80185ED1FC20091D8011091D901D9
:1013E000102701271027C090DA01D12CADE1CA16D1
:1013F000D10408F0A4C227EDE22E21E0F22EC801AC
:10140000855D9D4F9701275D31402C153D0508F006
:1014100096C2053DB1E01B0728F40E94FB21F701AD
:10142000848303C0D70114961C920F5F1F4FBFEF38
:10143000EB1AFB0AE4CF8091EB009091EC00892B32
:1014400009F47DC20091D8011091D901102701271C
:101450001027E090DA01F12CEDE1EE16F10408F02E
:101460006EC297EDC92E91E0D92EC801855D9D4FC2
:101470009601275D31402E153F0508F060C2053DFD
:10148000F1E01F0728F4D60114966C910E940F22F8
:101490000F5F1F4FBFEFCB1ADB0AE7CF0E942C185C
:1014A0004EC282E08093D8014AC20091D8011091C7
:1014B000D901102701271027C090DA01D12CEDE1C6
:1014C000CE16D10408F03BC287EDE82E81E0F82E5D
:1014D000C80187969701275D31402C153D0508F01E
:1014E0002EC2003EF1E01F0730F40E94FB21D7011D
:1014F00014968C9302C0F70114820F5F1F4FFFEF09
:10150000EF1AFF0AE5CF0091D8011091D9011027F9
:1015100001271027C090DA01D12C2DE1C216D10489
:1015200008F00DC2003E31E0130708F008C280EE5B
:1015300091E0801B910B8C159D0508F400C21801E9
:1015400047E2240E311C8091EB009091EC00892B36
:1015500029F0B7EDEB2EB1E0FB2E60C000FF11C00B
:10156000C80186960E94FB2190E0982F8827209141
:10157000DB01822B81159C4539F48FEF8093DB01D1
:1015800003C0E12CF12C03C0EE24E394F12CC6013E
:10159000800F911F460180FF1BC0B1E08B1A91089C
:1015A000F401E552FE4FFC8BEB8BC1018C0D9D1DB0
:1015B0000E94FB21AB89BC892C9130E0322F22277D
:1015C000282B21153C4521F48FEFEB89FC89808382
:1015D000F701E952FE4F2FEFCF01875D914088154B
:1015E000990508F0B6CF848190E0982F882735813F
:1015F000832B81159C4511F4248325833296ECCFEF
:10160000003E41E0140728F4D70114966C910E9423
:101610000F220F5F1F4FBFEFEB1AFB0AC80187961F
:101620009701275D31402C153D0550F388C180910D
:10163000EB009091EC00892B09F481C10E94DF1529
:10164000EFE7F9EA23E0E150F0402040E1F700C085
:1016500000000E94611673C1E091D8018E2F90E0C6
:101660008E30910508F06BC1FC01E65DFF4F0C94D4
:10167000712288E0E2E7F0E0DE01119601900D9220
:101680008A95E1F780E2A7EDB1E01D928A95E9F72E
:1016900085E08093D70188E0FE013196ABEDB1E0A3
:1016A00001900D928A95E1F74AC18CEB8093D701A6
:1016B00082E08093D8011092D9011092DA013FC1E3
:1016C0008091DA0190E0982F88272091D901820F2C
:1016D000911D092E000CAA0BBB0B65E0880F991F0A
:1016E000AA1FBB1F6A95D1F7AC01BD01405E5F4FD9
:1016F0006F4F7F4F481759076A077B0708F41FC1D0
:101700008C3BE2E09E07A105B10508F018C14D3BF6
:10171000F2E05F076105710520F04CEB52E060E0FC
:1017200070E0481B590BBC0163587F4F87ED91E077
:101730000E94F22104C140E250E06FEF70E087EDBB
:1017400091E00E94AD228091EB008093D70100933D
:10175000D8011092D90186E08093DA0183E080936A
:10176000DB0182E015C15092F0004092EF007092D0
:10177000D5006092D4000E94B0169093D30080935D
:10178000D200DDC0012BE9F18091D6009091D70005
:1017900026E0969587952A95E1F72091DC00309117
:1017A000DD003695279536952795122F1170182351
:1017B0008091D2009091D3000E94951685369105B4
:1017C000E0F01123D1F00E94B0169093D3008093E3
:1017D000D2008091D4009091D50001979093D500CC
:1017E0008093D400892B69F41092F0001092EF00DE
:1017F0005092EC004092EB0004C07092D5006092D1
:10180000D4008091EB008093D7018091EF0080930A
:10181000D8018091D4008093D90191C01092EC003E
:101820001092EB008CC00091D9011091DA0140E2D6
:1018300050E06FEF70E087ED91E00E94AD2229E16A
:1018400035E080E090E0AC014E5F5F4F41325105E2
:1018500008F075C0F901659174910617170730F407
:10186000FC01E952FE4F71836083CA01245F3F4F40
:10187000A216B30641F763C02091D9013091DA0175
:1018800089E195E0FC01459154912417350729F031
:101890000C96A816B906B1F74FC0009709F44CC0D2
:1018A000FC013696259134912115310509F444C087
:1018B0004FE150E068ED71E0F90109953EC080917B
:1018C000D9019091DA0109E115E0F80125913491EF
:1018D0008217930731F0045F1F4FA016B106A9F7D6
:1018E0002BC00115110541F1F8013896259134916D
:1018F0002115310509F14CE150E06BED71E0C801B3
:10190000F90109950097C9F4F8013A9685919491E7
:10191000009711F0FC01099580E00FC00E94EE17BE
:101920000EC08091D90181110AC080E2A7EDB1E01B
:101930001D928A95E9F703C08FEF8093D7010E942B
:10194000DF151092C501A0CAF89421B3939A822F93
:101950008C6081BB92B38CE0982792BBBFE5EAEE26
:10196000F0E0B150E040F040E1F700C0000092B379
:10197000892782BB21BB9398789486CA86E290E03F
:101980000E94FB211092D9011092DA011092DB0122
:101990008093DC01D4CF9C013A9521153F4130F56D
:1019A000BC0166277270AC01442754709C01222749
:1019B000387094FF0FC090FF02C080E101C080E04A
:1019C000672B09F08062452B09F08064232B79F0A6
:1019D00080680895892F8170672B09F08260452BFC
:1019E00009F08460232B19F08860089580E0089541
:1019F0001092F4000E94601B2FEB87E299E02150C7
:101A000080409040E1F700C000009CE088E10FB604
:101A1000F894A89581BD0FBE91BDFFCF81FB99279A
:101A200090F980FF02C0909A01C09098992311F01C
:101A3000919A089591980895CF93DF93EC010E94B5
:101A4000921BCE01805E9109089710F0209731F427
:101A5000CE010E94CB0C0E94811B05C0CE010E94CA
:101A6000CB0C0E946C1BDF91CF910895CF93DF9335
:101A7000EC01805E9109089710F0209731F4CE01B7
:101A80000E94CB0C0E94881B05C0CE010E94CB0C8B
:101A90000E94771B8C2F0E94E71BDF91CF91089546
:101AA000A3E1B0E0E6E5FDE00C94C121942F4F875F
:101AB000252F588B698B7A8B8B8B4A895B89452BB9
:101AC00031F02F3F31F481E09F3F19F403C081E0F2
:101AD00001C080E080FD09C08091E9009091EA009A
:101AE00001969093EA008093E900298921111092D0
:101AF000F30085E0FE013F96DE01169601900D92FF
:101B00008A95E1F79E818F8149855A85452B31F071
:101B10008F3F31F481E09F3F19F403C081E001C0A1
:101B200080E080FD4CC485E0FE013696DE01119612
:101B300001900D928A95E1F789819A81222349F0DB
:101B40000E94BA1A182F682F89819A810E941D1B42
:101B500003C00E94E91A182F69817A81812F0E949F
:101B60003C188C018885882309F4D2C0C8018251B1
:101B70009F45409708F0C4C08FEF93E00E94FB217F
:101B800081111DC42EEEF22EF00E0BE212E0FF20AA
:101B900071F0011524E0120709F411C4C8010E9474
:101BA000FB21811101C0FA940F5F1F4FF0CF1B86FC
:101BB0001C861D861E86CC24CA9478014FEFE41A39
:101BC000F40AC8010E94FB218B871C86882309F434
:101BD000F6C3813009F08FC0580152E0A50EB11C48
:101BE000C7010E94FB21D82E8C87882309F4E7C304
:101BF0008FEF8D0D833060F4780183E0E80EF11CE7
:101C0000C5010E94FB218D87811175C08701D5CF49
:101C10008BEF8D0D833008F03FC0480193E0890EB3
:101C2000911CC5010E94FB218D87811102C07401A6
:101C3000EDCF7801E4E0EE0EF11CC4010E94FB211F
:101C40008E87882319F38D859E858130FFEF9F074E
:101C500018F0182F00E001C08C0126E0D216A1F088
:101C600047E0D416A9F0C8010E94911F809133016A
:101C700090913401009761F0E7EBFBE03197F1F7C9
:101C800000C000000197F6CFC8010E94911FBECF8F
:101C9000C8010E946C1FBACFF4E0DF1611F0750185
:101CA000B5CFC5010E94FB21D82E780124E0E20EB9
:101CB000F11CC80103960E94FB21DD2009F47FC3BB
:101CC000882309F47CC3282F30E021503109C29EBB
:101CD000A001C39E500D11248D2D90E00197840F1B
:101CE000951F019708F492CFE7EBFBE03197F1F7EE
:101CF00000C00000F6CFCE010B960E94DC1386CF09
:101D000000319FE5190789F48091F701826008C0CE
:101D10000031FFE51F0709F047C38091F7018D7F70
:101D20000E94521B0E94D0134AC30131EFE51E07E7
:101D300021F48091F7018460F3CF8091300180FF1E
:101D400036C10E94B0167C0188858823D9F1809124
:101D50006E0082FF08C02CEC30E040E0B70180E06C
:101D600090E00E9401170B312CE5120779F00C313D
:101D70004CE5140789F00A315CE51507A1F4809160
:101D80006E00982F909590FB80F909C080916E00AD
:101D9000816080936E0007C080916E008E7F80937B
:101DA0006E000E94C916C80190568115E0E29E0798
:101DB00020F0905E8115904180F510923C011092C8
:101DC0003B01F5C0013E110521F480916E008F7E2C
:101DD00006C0053E110531F480916E008F7D809321
:101DE0006E001BC0C8019056811520E2920720F0BA
:101DF000905E8115904188F480916E0082FFDDC273
:101E00008091320181FDD9C22CEC30E040E0B70175
:101E100080E090E00E940117CAC080916E0080FFB0
:101E2000C6C088850832110538F40E311105B8F4A2
:101E30000430110578F41CC00933110538F40D3253
:101E4000110590F40B32110579F012C0043611051A
:101E500059F00EC09091300194FD0AC00CC09091D1
:101E6000300193FD05C007C09091300192FF03C07F
:101E70008111A3CFA2C2882309F490C08091F400FD
:101E8000982F9D7F51F110923C0110923B0190914F
:101E9000300191FD22C0F80193E0F695E7959A95FF
:101EA000E1F7EE71FF27EB50FF4F98012F703327BA
:101EB00081E090E002C0880F991F2A95E2F7809593
:101EC0009095208131818223932391838083AE0179
:101ED0004A5F5F4F60E0C8014BC095E0FE01369657
:101EE000ACECB0E001900D929A95E1F71092CE0023
:101EF0001092D0001092CF0020913B0130913C0114
:101F000002171307C1F59091300195FF34C020915D
:101F10006E0021FF02C096FF2EC020913901309142
:101F20003A01F701E21BF30BE83CF10520F581FFD4
:101F300008C080916E00806180936E0082E00E94F4
:101F40009F1A8091F40085FF08C080916E00806226
:101F500080936E0080E20E949F1A60916E006695E9
:101F60006170AE014A5F5F4F80913B0190913C01EF
:101F70000E94EC1624C281FB992790F980916E0093
:101F800090FB81F910933C0100933B01F0923A01E0
:101F9000E0923901846080936E0011C29E012A5F35
:101FA0003F4F40E0B701C8010E94011708C2988561
:101FB0009111CAC08091F40082720B3CFCE51F07AE
:101FC00009F4A7C0B8F5063C4CE5140709F48DC028
:101FD000D8F4033CECE51E0709F47DC030F4023C64
:101FE0002CE5120709F452C0ADC0043C4CE51407BF
:101FF00009F476C0053C5CE5150709F0A3C048E587
:102000005FE162E67FE18EC0083CECE51E0709F463
:1020100076C008F46FC0093C2CE5120709F474C0BF
:102020000A3C4CE5140709F08DC041E35FE164E22E
:102030007FE178C0003D5CE5150709F47EC0A0F49F
:102040000D3CFCE51F0709F470C008F467C00E3CA6
:102050004CE5140709F46EC00F3C5CE5150709F068
:1020600071C068E086E06BC0063D8CE5180740F45F
:10207000023D9CE5190708F0A2C164E18FE05FC052
:102080000D35EDE51E0709F49AC15CC0809175021B
:1020900080FF1BC08E7F80937502609175027091E6
:1020A000760280917702909178020E9435201092FA
:1020B0003C02FFEB24ED41E0F15020404040E1F7CD
:1020C00000C000000E94DE1D7AC18160809375020D
:1020D00061E086952CC04DE050E267E170E222C0DD
:1020E00047E150E26DE070E21DC042E65FE168E565
:1020F0007FE118C04EE35FE16BE47FE113C04BE486
:102100005FE16EE37FE10EC044E25FE161E37FE106
:1021100009C041E15DE163E27DE104C043E25DE1CC
:1021200061E17DE10E94D71D4AC161E081E00E942A
:10213000B71F45C165E082E002C06EE089E00E9401
:10214000F91F3DC1992309F10E3D5CE51507C1F06A
:10215000073A8DE51807B1F001159CE51907A1F4C0
:102160001092F4000E94601BEFEBF7E229E0E150CF
:10217000F0402040E1F700C000000E9461161FC13E
:102180000E94341A0E94F80C91E00E811F8199235D
:1021900049F0C8010E94BA1AF82E682FC8010E949F
:1021A0001D1B04C0C8010E94E91AF82EB8018F2D2A
:1021B0000E943C180E94B718082FE82EF92EF294BE
:1021C0008FE0F822288548E0F41609F44BC04F153B
:1021D00020F051E05F1530F4DEC089E0F81609F414
:1021E000B5C0D9C0192F1F708F2D8295807F182BF5
:1021F000812F807F1F70882311F01295107F22237A
:10220000C9F0112399F080E2800F883010F0E110BE
:1022100006C09091F400192B1093F40005C0909122
:10222000F300192B1093F3000E94A61A802F0E942E
:10223000E71BB1C0802F0E94921B112309F4ABC091
:10224000005E083010F0E11004C0812F0E949F1A38
:1022500006C010958091F30018231093F3000E949C
:10226000A61A99C09F70192F1068812F8370A9F545
:10227000211195C0402F429546954770440F440F59
:10228000802F8F7090E09C01042E01C0220F0A94D1
:10229000EAF704FF08C08FE090E001C0880F4A957C
:1022A000EAF7809501C080E01695169513701230FC
:1022B00069F088F490913102113019F0822B892352
:1022C00002C0922B892B0E94591B69C0822B9091CE
:1022D00031028927F8CF822BF6CF222319F0812FE4
:1022E000817001C08695882309F459C0402F42951A
:1022F00046954770440F440F802F8F7090E09C01EB
:10230000042E01C0220F0A94EAF704FF08C08FE0F0
:1023100090E001C0880F4A95EAF7809501C080E0FF
:10232000169516951370123051F070F49091F701D4
:10233000113011F0822B2BC0922B892B29C0822BBC
:102340009091F701892724C0822B22C0192F1F707A
:10235000222381F081E090E0012E01C0880F0A94D1
:10236000EAF79091F701892B0E94521B802F0E945F
:10237000881B15C0802F0E94811B81E090E0012EF8
:1023800001C0880F0A94EAF780959091F70189239C
:102390000E94521B04C088EF8F0D823080F40E948F
:1023A000BC160E940E0D0BC001312FE5120709F07B
:1023B000C4CC8091F7018B7FB3CC9885FBCD63961D
:1023C000ECE00C94DD21FC0193819330B1F068F4D2
:1023D000913081F0923009F05FC08BE596E09093E8
:1023E000D6018093D50182E40895913279F1923239
:1023F000E9F152C08DE996E023C082818130B1F0CD
:1024000068F08230D9F0833009F046C08BE096E066
:102410009093D6018093D5018CE1089587E596E0ED
:102420009093D6018093D50184E008958DE396E0E2
:102430009093D6018093D50188E1089589E296E0D2
:102440009093D6018093D50182E1089582818823FB
:1024500029F0813009F586E896E002C08DE696E025
:102460009093D6018093D50189E008958481958168
:10247000009751F0019781F489EA95E09093D60195
:102480008093D50182E208958BEC95E09093D6017C
:102490008093D50180E4089580E00895089508951B
:1024A000089508958091D0010895A0E0B0E0EBE593
:1024B000F2E10C94C3214430510508F46CC0409102
:1024C000F10041FBCC24C0F8D12CCC0CDD1C42FB2C
:1024D000882780F9C82FE0E0DE2FCC0FDD1FCC0F5E
:1024E000DD1FCC2ADD2A40FBEE24E0F8F12CEC289D
:1024F000FD2843FBAA27A0F9B0E023E0AA0FBB1FE9
:102500002A95E1F7EA2AFB2A44FBEE27E0F9F0E0FE
:1025100034E0EE0FFF1F3A95E1F7EE29FF2945FB66
:10252000222720F930E055E0220F331F5A95E1F7BA
:102530002E2B3F2B46FB882780F990E0E6E0880FA2
:10254000991FEA95E1F7822B932B47FB442740F92B
:1025500050E05695542F442757954795842B952B3B
:102560002091F200322F3170132F00E0082B192B2D
:1025700026952170B22EBB0CA12C0A291B29012EF5
:10258000000C220B330BFB01008311832283338366
:1025900080E090E002C08FEF9FEFCDB7DEB7EAE0BA
:1025A0000C94DF21809115019091160190936D009C
:1025B00080936C0008951F93CF93DF93162FEA0149
:1025C000288124FF05C0398128E82327298302C0F8
:1025D0002AE52883212FFC01CE010296DC013191EE
:1025E0003D9321501216DCF3612F0E94E4041C5F1E
:1025F0001883DF91CF911F910895CF92DF92EF92D0
:10260000FF92CF934430510508F474C0FB01C080A1
:10261000D180E280F3801092F4000E94601B6091F0
:10262000F100C0FA60F9D701C601B695A795979554
:10263000879580FB61F9D701C60132E0B695A79571
:10264000979587953A95D1F780FB62F9D701C60136
:1026500043E0B695A795979587954A95D1F780FB66
:1026600063F9D701C60154E0B695A795979587956C
:102670005A95D1F780FB64F9D701C60175E0B6958C
:10268000A795979587957A95D1F780FB65F9D7013E
:10269000C601E6E0B695A79597958795EA95D1F797
:1026A00080FB66F9D701C601F7E0B695A795979527
:1026B0008795FA95D1F780FB67F96093F100C09197
:1026C000F200D0FAC0F9A9E0F694E794D794C79441
:1026D000AA95D1F7C0FAC1F9C093F20084E090E066
:1026E0000E940F226C2F82E290E00E940F2280E075
:1026F00090E002C08FEF9FEFCF91FF90EF90DF90BF
:10270000CF9008950F931F93CF93DF9305E111E0CE
:10271000C7E0D2E0CE010E94FB21F80161918F0158
:10272000681719F0CE010E940F222196CB32F2E0F9
:10273000DF0781F7DF91CF911F910F910895DA01A3
:102740009C012E5F3F4FF90145915491F90125916C
:102750003491A217B30758F0FC01349685919491F7
:102760000E94A4220E94821380E090E008958FEFDF
:102770009FEF08959C01CA01F90132964591549149
:102780008417950750F0CB01F90134966591749147
:102790000E94A42280E090E008958FEF9FEF0895BB
:1027A0008091F701982F9670963011F4886001C0DF
:1027B000877F0E94521B0895A0E0B0E0E2EEF3E1B3
:1027C0000C94C321EC018AE0A82E2881222309F46D
:1027D0009AC0213009F041C08981813039F48E01DD
:1027E0000E5F1F4F8A810E943B1C08C0823041F45B
:1027F0008E010E5F1F4F8A810E94E71BE80181C096
:10280000833039F48E010E5F1F4F8A810E94921B24
:10281000F5CF843011F0219674C02A81229680E091
:1028200090E030E0205331092A30310558F4A89E59
:10283000A001A99E500D1124C901840F951F219656
:102840002881EFCF009709F45CC0E7EBFBE03197FC
:10285000F1F700C000000197F5CFE22FF0E0E15260
:10286000F94FB490822F86958695869590E0FC016D
:10287000E153F94FE4902770F12C022E02C0F59439
:10288000E7940A94E2F7F1E0EF22FF24FC01E1541F
:10289000F94FC490D12C022E02C0D594C7940A944B
:1028A000E2F731E0C322DD24FC01E155F94F049148
:1028B00010E002C0159507952A95E2F701701127DF
:1028C000E114F10419F081EE0E94E71BC114D10458
:1028D00019F086EE0E94E71B8B2D0E943B1CC11451
:1028E000D10419F086EE0E94921BE114F10419F054
:1028F00081EE0E94921B0115110519F08CE20E94D5
:102900003B1C219662CFCDB7DEB7EAE00C94DF2105
:10291000CF93DF938091A202835087FDE4C0909112
:10292000A102CCE0D0E0C91BD109CC55DD4F90917C
:10293000A0029031D0F4883019F01092C501D1C0B6
:102940008091C501E82FF0E0E931F105B4F7E952D3
:10295000FE4F9E01285F3F4F999191932C173D07A1
:10296000D9F7885F8093C501BCC09D3209F0A0C033
:10297000883009F0B6C083EC80937C028AE58093AE
:1029800070001092D40188818076D9F1803209F0EC
:1029900084C08981813069F48C819D81892B09F003
:1029A0007CC087EC91E09093D6018093D50188E0BC
:1029B00075C0823041F486EC91E09093D60180930B
:1029C000D50181E06BC08A3021F48B818093C601F0
:1029D00064C0893009F061C08A819B818115924071
:1029E00009F0DCC08C819D81892B09F0D7C081E082
:1029F0008093D3018E819F819093D2018093D101E6
:102A0000CDC09A81109285028981811106C01092F1
:102A1000860225E832E082E03BC0853019F49093CD
:102A2000A30233C08630B9F48B81813041F082300B
:102A300031F0833021F0813211F0823221F4CE0165
:102A40000E94E31101C080E090E49093D4018F3F95
:102A500009F4A4C023C0883089F0893019F4909318
:102A6000CF0113C08A3069F08B3079F48BE4809306
:102A700088028093BB028093940207C02FEC31E060
:102A800002C025E832E081E003C025E832E080E0C2
:102A90003093D6012093D50101C080E09F81911130
:102AA00004C09E81981708F4892F80936F0019C085
:102AB0008091D40187FF15C08091D1019091D201FE
:102AC000892B09F475C08091D301813009F070C061
:102AD00088818093D0011092D2011092D10110927E
:102AE0006F001092A2028091700084FF4CC0809110
:102AF0006F008F3F09F447C0C82F893008F0C8E045
:102B00008C1B80936F0090917C0288E889278093CA
:102B10007C02CC2359F18091D5019091D60120916E
:102B2000D40126FF12C0ACE7B2E02C2FAC014C5709
:102B30005240FA01EA0FFB1FE4911196EC931197B2
:102B4000215011962111F5CF08C0EDE7F2E0DC012C
:102B50002C2F3D9131932150E1F701962FEF2C0F4F
:102B6000820F911D9093D6018093D5016C2F8DE734
:102B700092E00E94E404CC5FCC3019F08FEF809398
:102B80006F00C093700084E190B39C70A9F48150F1
:102B9000D9F71092A30210929F020EC0888187FF7E
:102BA00005C08E8190E89093D4017FCF8FEFFACF4C
:102BB0008EE18093700095CFDF91CF910895CF93F0
:102BC000DF93C7EDD1E08091930284FD03C00E94A2
:102BD0008814F9CF43E952E068E0CE010E94DB128D
:102BE000289681E0C73FD80771F78091930284FD52
:102BF00003C00E948814F9CF43E952E060E080E00E
:102C000090E00E94DB12DF91CF910895CF93DF9384
:102C1000CAE0D0E08091870284FF1AC08091C3018E
:102C20009091C4019817F1F028E0829FC00111240F
:102C300047E852E068E08D5B9E4F0E94DB12809176
:102C4000C30190E001968F7099278093C3010AC059
:102C50000E94881487EB9BE00197F1F700C0000009
:102C60002197C1F6DF91CF910895CF93DF93EC01C7
:102C7000A091C401B0E0CD0101968F7099272091F9
:102C8000C301281779F093E0AA0FBB1F9A95E1F7CB
:102C9000AD5BBE4F98E0FE0101900D929A95E1F771
:102CA0008093C4010E9488140E94061688E0FE01E9
:102CB000A7ECB1E001900D928A95E1F7DF91CF91F9
:102CC000089560E081E090E00E9432229CE088E17B
:102CD0000FB6F894A89581BD0FBE91BDFFCF789433
:102CE0001F920F920FB60F9211248F939F93AF9361
:102CF000BF9380913F0190914001A0914101B0911B
:102D000042010196A11DB11D80933F0190934001A6
:102D1000A0934101B0934201BF91AF919F918F91D8
:102D20000F900FBE0F901F9018959C014FB7F8940D
:102D300080913F0190914001A0914101B0914201E9
:102D40004FBF821B930B08952FB7F89460913F01FA
:102D50007091400180914101909142012FBF0895EF
:102D60002FB7F89480913F0190914001A0914101CB
:102D7000B09142012FBF0895E0913D01F0913E01D5
:102D8000309729F00190F081E02D0995089580E0B9
:102D9000089580916E00877F80936E009091F3007C
:102DA0009D7F9093F30084FF08C08F7E80936E0018
:102DB0008091F40082608093F40080916E0085FF22
:102DC00008C08F7D80936E008091F40080628093B4
:102DD000F4000E94A61A0895662329F02091F300BA
:102DE00022602093F3009C013056211540E2340705
:102DF00020F0305E2115304108F499270E94360DED
:102E00000895A0E0B0E0E7E0F7E10C94C3215C0195
:102E10007B01C42E890180916E0082FF95C0C09114
:102E20003B01D0913C01CA15DB0521F0A114B1048E
:102E300009F08AC080916E008B7F80936E0081FDC7
:102E400011C08091390190913A01A701481B590B9B
:102E500081E020916C0030916D004217530718F407
:102E600080E001C081E08170D82E80916E00D0FAA0
:102E700081F980936E00FE01FF2784E0F695E795C7
:102E80008A95E1F79E012F703327EE0FFF1FEB505D
:102E9000FF4F81E090E002C0880F991F2A95E2F76A
:102EA000DD2029F020813181822B932B06C0809573
:102EB0009095208131818223932391838083809117
:102EC000F40081FF08C080916E00806180936E00E5
:102ED00082E00E949F1A8091F40085FF08C08091D3
:102EE0006E00806280936E0080E20E949F1AA801AB
:102EF0006D2DCE010E94EC16CC2031F08091300176
:102F000085FF02C086FF3EC080913301909134015D
:102F1000009741F0E7EBFBE03197F1F700C00000CC
:102F20000197F6CF80913B0190913C019C01305676
:102F30002115F0E23F0720F0305E2115304108F402
:102F400099270E941C0D18C095013327C501905682
:102F50008115E0E29E0720F0905E8115904110F40B
:102F6000C90101C0C5010E941C0D80913B019091D7
:102F70003C01A816B90611F40E94C916F0923A0154
:102F8000E0923901CDB7DEB7EAE00C94DF210F9370
:102F90001F93CF93DF9305E111E0C7E0D2E0CE01AC
:102FA0000E94FB21F80181938F012196CB32F2E040
:102FB000DF07A9F7C0E0D0E0FE01ED5DFA4F859193
:102FC0009491009711F0FC0109952C96C039D10518
:102FD00099F7DF91CF911F910F910895CF93E5E17C
:102FE000F1E0128E138E8FEA90E09183808385E06A
:102FF000848F28E833E13383228322E330E0378B68
:10300000268B28EC30E0318F208F158E178E168E90
:1030100020E530E031A320A382A30E948213109206
:10302000F4000E94601B1092F2001092F100E2EF97
:10303000F0E08081846080836091F100C82F84E09B
:1030400090E00E940F226C2F82E290E00E940F22FB
:103050000E94C717CF910895CF93DF93CBE2D2E0C0
:1030600060E0CE010E940F222196C11584E0D807AE
:10307000B9F7DF91CF9108952091EF003091F000E2
:10308000232BA1F4703F39F4603F81F48091ED006F
:103090009091EE000895823048F4783038F46F3023
:1030A00028F4462F672F0E945C1D089580E090E071
:1030B0000895A0E0B0E0EFE5F8E10C94C121C090E4
:1030C000EB00D090EC0081E090E09093EC008093D6
:1030D000EB00812CE12CF12C912C00E010E0C0E001
:1030E000D0E05701A00EB11EFE01EE0FFF1FEA0D4A
:1030F000FB1DE75CFC4F259134914C2F692D882DE9
:103100000E94351D2196CF30D10571F7025E1F4F09
:10311000939488E09812E3CF80EFE80EF11C83943B
:1031200082E08812D9CF0E94EE17D092EC00C092B4
:10313000EB00CDB7DEB7ECE00C94DD2180E0089524
:10314000F894E82FE295EF70F0E031A9282F2F7066
:1031500081E090E001C0880F2A95EAF7982F9095BA
:10316000932391AB92A9892B82AB789408958238EE
:10317000910569F1B0F48133910509F477C048F401
:103180008932910509F469C08A32910509F473C046
:1031900077C08533910509F45BC089339105B9F097
:1031A0006FC0833E910591F138F4803E9105D1F0D6
:1031B000823E910531F164C0863E9105D9F1873E8A
:1031C0009105E9F1843E910509F05AC028C020918B
:1031D000F10020FD28C121FD26C12091F20023FD30
:1031E0002EC14EC08091F10080FD17C18091F20088
:1031F00080FF19C18091F10084FD0CC183EE90E045
:1032000008958091F10082FF0BC1F4CF8091F1000D
:1032100082FD06C18091F20080FD05C1EBCF809157
:10322000F20081FF06C18091F10084FDF3C087EEBA
:1032300090E008958091F10083FFF8C0F4CF809171
:10324000F10083FDF3C08091F20081FDF2C0EBCF6D
:103250008091F10085FDF3C0EFC08091F10085FD04
:10326000EBC08091F20083FFEAC0D7C08091F100EB
:1032700086FDE8C0EAC08091F10086FDE6C0E2C0AC
:10328000811521E5920758F5811520E5920708F090
:103290004BC0883E910588F4803E910508F0D7C068
:1032A00081309105F1F108F4B5C09C012450310939
:1032B000213A310508F0AEC00895811521E092074A
:1032C00008F4A8C0811520E2920708F4C0C0811557
:1032D00020E4920708F49EC09F70906A08958115BB
:1032E00024E5920770F4811523E5920708F047C0A2
:1032F000811522E5920768F5982F8827816F906ADB
:103300000895811528E5920708F484C0811529E500
:10331000920708F44AC081152AE5920708F44AC0CA
:1033200079C081E090E00895482F4F70469546950A
:1033300020E2429FA0011124837021E030E002C00E
:10334000220F331F8A95E2F7C9019D68842B952BC4
:1033500008959C012370332741E050E002C0440FE0
:10336000551F2A95E2F7282F2695269580E2289F5B
:1033700090011124CA01822B932B9C6808959C0113
:103380002370332741E050E002C0440F551F2A95B7
:10339000E2F7282F2695269580E2289F9001112498
:1033A000CA01822B932B9A680895982F8827806FE3
:1033B000906A0895282F2F703091F10032FF0BC0D2
:1033C00083FF04C0282F2770246005C082FF03C03C
:1033D000282F2B7028604091F20040FF0DC0422F33
:1033E0004871483019F4277F216006C0422F41718F
:1033F000413011F42E7F286034FD277E34E096950D
:1034000087953A95E1F78F7090E0982F882790691B
:10341000822B089580E090E0089589E390E008957C
:1034200082EE90E0089580EE90E0089586EE90E0C0
:10343000089584EE90E0089585E390E0089589E290
:1034400090E008958AE290E0089581E390E0089585
:1034500080E090E00E940922883E9E4F19F40E946D
:10346000BE1D089580E0089568EE7EEF80E090E054
:103470000E942C2260E082E090E00E940F2260E037
:1034800083E090E00E940F221092310260E084E01D
:1034900090E00E940F2264E082E290E00E940F22FE
:1034A00060E085E090E00E940F2260E086E090E01E
:1034B0000E940F226FEF87E090E00E940F2240E011
:1034C00050E0BA0188E090E00E94202260E08DE0A8
:1034D00090E00E940F2240E050E0BA0188E190E0C5
:1034E0000E94202260E087E190E00E940F2240E0ED
:1034F00050E0BA018CE190E00E94202260E070E090
:1035000080E290E00E942C2240E050E0BA0188E185
:1035100090E00E94202280E00E948F1D0E94AE1D3C
:1035200040E050E0BA018FE090E00E94202240E0AD
:1035300050E0BA0183E190E00E9420220895809536
:103540009091F40089238093F40008959091F40001
:103550008091F300892B8093F801E0913D01F09177
:103560003E01309731F00280F381E02D88EF91E049
:1035700009950895CF92DF92FF920F931F93CF93F7
:10358000DF936C010091F70180913102082BC7E0B5
:10359000D0E010E0C8010C2E02C0959587950A94E2
:1035A000E2F780FD04C02197A8F7F12C09C0FC2E9A
:1035B000B6018C2F0E943C180E94B718019799F30E
:1035C0008F2DDF91CF911F910F91FF90DF90CF90C2
:1035D0000895292F983078F58F3068F590E03FE016
:1035E000239F800D911D1124682F677023E096950D
:1035F00087952A95E1F7FC01EE0FFF1FE80FF91FF1
:10360000EC5FFD4F40E050E080E0219130E0062E7D
:1036100002C0369527950A94E2F721703327042ECD
:1036200001C0220F0A94EAF7822B4F5F5F4F4330AD
:10363000510559F7089580E00895292F983088F5AD
:103640008F3078F590E03FE0239F800D911D11248D
:10365000282F277051E001C0550F2A95EAF723E083
:10366000969587952A95E1F7FC01EE0FFF1FE80F6D
:10367000F91FEC5FFD4F20E030E070E04081CB01AE
:10368000022E02C0969587950A94E2F78170819583
:1036900084278523842781932F5F3F4F2330310573
:1036A00069F708958093F7011092F3000E94A61A1B
:1036B0000895809331021092F3000E94A61A089593
:1036C00086E0EAEFF1E0DF011D928A95E9F71092BA
:1036D000F3000E94A61A0895882341F080959091E6
:1036E000F30089238093F3000E94A61A089588238B
:1036F00039F09091F300892B8093F3000E94A61A71
:103700000895882321F00E949F1A0E94A61A089506
:10371000882339F09091F400892B8093F4000E9463
:10372000A61A0895882309F451C09CEF980F913A86
:1037300060F4E8EFF1E09281891301C012823196C2
:1037400091E0EE3FF907B9F70DC090E2980F98307D
:1037500060F4877091E001C0990F8A95EAF7892F8C
:103760000E949F1A0E94A61A08959BE5980F933015
:10377000A0F48091000290910102892B39F11092FE
:10378000010210920002E0913D01F0913E0130975C
:10379000E9F00680F781E02D16C0885A8731B0F431
:1037A0008091020290910302892B81F01092030212
:1037B00010920202E0913D01F0913E01309731F00C
:1037C0000084F185E02D80E090E0099508950F9345
:1037D0001F93CF93882309F44AC0C82F8CEF8C0F16
:1037E000813A48F50AEF11E080E092E0F80121917A
:1037F000C21721F08E179F07D1F70DC0E8EFF1E057
:103800008281C81301C01282319681E0EE3FF80731
:10381000B9F70E94A61AEFEF80E0D8019D918D01C3
:10382000C917C9F0EF3F19F4911101C0E82F8F5F5C
:10383000863099F713C080E28C0F8830C0F4C770CF
:1038400081E090E001C0880FCA95EAF79091F400FA
:10385000892B8093F4000E94A61A09C0EF3FD9F388
:103860000E2E000CFF0BE850FE4FC283F4CFCF9119
:103870001F910F9108951F93CF93DF93182F8933D2
:1038800029F4C0913501D091360104C0C0913301B3
:10389000D0913401812F0E94E71B209741F087EBE4
:1038A0009BE00197F1F700C000002197F6CF812F30
:1038B0000E94921BDF91CF911F910895A0E1B0E08B
:1038C000E4E6FCE10C94BF21AE014F5F5F4F7A014B
:1038D00080E1FA0111928A95E9F70AE710E06A019E
:1038E00092E8692E90E0792E88248394912CF80137
:1038F00080818F3F09F447C0F894E82FE295EF707C
:10390000F0E021A98F70A40102C0440F551F8A95D1
:10391000E2F7CA01922F982B91AB92A98095892347
:1039200082AB789400C0E2E8F0E021E030E0A12C26
:10393000B12C41914F3F89F0A42FA295AF70B0E018
:10394000D0968C9190E04F7002C0959587954A95DE
:10395000E2F780FD02C0C90102C080E090E0A82A21
:10396000B92A220F331F50E0E139F50711F7F801AA
:1039700080818F3F11F00E94A018F8E7FA95F1F7C7
:10398000F601B182A0820F5F1F4FF2E0CF0ED11C73
:103990006016710609F0ABCF40E150E0B70188EA4C
:1039A00090E00E949722892B89F080E1F701A8EA34
:1039B000B0E001900D928A95E1F781E080933402A6
:1039C0000E94B016909333028093320280913402A9
:1039D000811102C080E020C08091320290913302B8
:1039E0000E9495160597B0F340E150E068EA70E058
:1039F00086ED90E00E949722892B59F080E1E8EA59
:103A0000F0E0A6EDB0E001900D928A95E1F781E03B
:103A100001C080E0109234026096EEE00C94DB214D
:103A2000089580917902882319F08150809379025A
:103A30006091750270917602809177029091780280
:103A40000E943520089580917902833018F48F5FA9
:103A5000809379026091750270917602809177026D
:103A6000909178020E94352008951F93CF93DF93A1
:103A7000962F8230E8F46830D8F44F30C8F4632FC2
:103A8000122FC42FD0E0CC0FDD1F2EE1929FC00D6E
:103A9000D11D112490EF899FC00DD11D1124CE019D
:103AA00087960E940F22612FCE0188960E940F22D6
:103AB000DF91CF911F9108950F931F93CF93DF93C1
:103AC000823008F56830F8F44F30E8F4C42FD0E0C5
:103AD000CC0FDD1F2EE1629FC00DD11D112430EFF0
:103AE000839FC00DD11D1124CE0187960E94FB211A
:103AF00090E0182F0027CE0188960E94FB219801A4
:103B0000282BC90102C080E090E0DF91CF911F9186
:103B10000F91089586E290E00E940F220895CF93BE
:103B2000C82F811102C06FEF01C061EA83E290E00B
:103B30000E940F22C11102C06FEF01C06FE984E241
:103B400090E00E940F22C11102C06FEF01C062E439
:103B500085E290E00E940F22CF91089580E00E94BC
:103B60008F1D60E070E0CB010E948A1D0E945918F1
:103B70000E942C1881E00E948F1D089583E290E03E
:103B80000E94FB21813A81F484E290E00E94FB21B3
:103B90008F3951F485E290E00E94FB2191E082345C
:103BA00009F090E0892F01C080E08170089588239A
:103BB00011F0FA0101C0FB01099508958091750289
:103BC00080FF0AC080913D02811111C00E94E42053
:103BD00081E080933D020BC0EFE3F2E0118210829E
:103BE0001282339682E0E537F807C1F7EBCF24E67F
:103BF00030E046E350E06FE372E080EB0E94872103
:103C00000895A0E0B0E0E7E0FEE10C94C421FC01DF
:103C1000828180FF03C0DD24DA9402C0DD24D394C6
:103C20000FE312E0C0E0D0E022E1B22EF8011182F1
:103C30001082128294E0E92EF12CC12C80913E0278
:103C40008C0D83312CF06B2D0E944F22892F02C0E6
:103C500087FD8E5E082E000C990BC817D90791F4CA
:103C6000809178028E9DA0018F9D500D1124559555
:103C70004795559547959801609177028091760216
:103C80000E945820CD0CF1E0EF1AF108B9F6219608
:103C90000D5F1F4FC231D10549F60E94DE1D809194
:103CA0003E0291E0D91206C0811102C081E107C035
:103CB000815005C090E00196BE010E945D22809374
:103CC0003E02CDB7DEB7E9E00C94E021EF92FF921F
:103CD0001F93CF93DF93EC018FE3E82E82E0F82E61
:103CE00010E08C8197014091780260917702810FFA
:103CF0000E945820125F83E0E80EF11C1C3F89F7F8
:103D00000E94DE1D9A818C8190FF02C08F5F01C0EE
:103D100081508C83DF91CF911F91FF90EF90089598
:103D20009091750290FF0CC0EFE3F2E08183608315
:103D30004283339692E0E537F907C1F70E94DE1D12
:103D40000895A3E0B0E0E7EAFEE10C94CB21909166
:103D5000750290FF0AC09E012F5F3F4F0E945820BE
:103D60004B8169818A810E94901E2396E2E00C9427
:103D7000E721CF93DF93EC01E5E7F2E04381628135
:103D80008C810E94A11E8C818F5F8C83DF91CF91EB
:103D90000895CF93DF93EC01EC81F0E0E15AF84F06
:103DA0004491E5E7F2E0628181810E94A11E8C814D
:103DB0008F5F8C83DF91CF910895A3E0B0E0E3EEB5
:103DC000FEE10C94C721082FF62E142FE22E8091CD
:103DD000750280FF35C0E82FE695F0E0EF56FF4F03
:103DE000908190933B028E7F823061F49E012F5F21
:103DF0003F4F802F0E9458204B8169818A810E9409
:103E0000901E0CC0923019F41091780207C09630C1
:103E100019F40091760202C09930D9F3009376022A
:103E2000F092770210937802EE2051F060917502C3
:103E30007091760280917702909178020E943520ED
:103E40002396E6E00C94E321E5E7F2E0438121E1EB
:103E5000421B08F440E021E0628181810E94DD1E66
:103E60000895E5E7F2E0438121E1420F08F44FEFC6
:103E700021E0628181810E94DD1E0895E5E7F2E084
:103E8000628121E1621B08F460E021E043818181CD
:103E90000E94DD1E0895E5E7F2E0628121E1620FF4
:103EA00008F46FEF21E0438181810E94DD1E0895B7
:103EB000E5E7F2E0818121E04381628188500E9440
:103EC000DD1E0895E5E7F2E0818121E04381628112
:103ED000885F0E94DD1E0895A5E0B0E0E2E7FFE103
:103EE0000C94CB219093EE008093ED00811520E29D
:103EF000920718F40E941C0D10C080EF89838A83FA
:103F00001B820E94B0168160782F9D838C8349812B
:103F10005A816B818D810E94500D2596E2E00C94B0
:103F2000E721A5E0B0E0E7E9FFE10C94CB21909315
:103F3000EE008093ED00811520E2920718F40E94B4
:103F4000360D11C080EF89838A8381E08B830E94C4
:103F5000B0168160782F9D838C8349815A816B8153
:103F60008D810E94500D2596E2E00C94E7219091FE
:103F7000750290FF3DC09170811102C0926006C031
:103F8000853110F0986202C0880F982B90937502CB
:103F9000662351F0609175027091760280917702EC
:103FA000909178020E94352060917502669570E0CC
:103FB00041E050E081E790E00E948A22892B19F0CD
:103FC00010923C0209C081E080933C020E94B0162E
:103FD000909336028093350281E08093380220E08E
:103FE0004091780260917702809176020E94DD1EF6
:103FF00008959091750290FF04C09695981748F027
:1040000003C0811106C090E0961718F40E94172093
:10401000089561E00E94B71F08958091750286950A
:10402000815009F484E161E00E94B71F08958091F6
:10403000750286958F5F853108F081E061E00E940E
:10404000B71F089580917502282F269530E021151D
:10405000310519F48170826005C02531310524F0E5
:1040600081708862809375020895CF92DF92EF92FB
:10407000FF926B017C010E942220B701A60188E01B
:1040800090E00E942022FF90EF90DF90CF90089563
:10409000E5E7F2E083E0808311828FEF8283838300
:1040A000148260817181828193810E9435200895FC
:1040B000A0E0B0E0EEE5F0E20C94C321E82EF62E8D
:1040C000E901E42FF0E0611106C0E15AF74FE491F5
:1040D0004E2F2E2F71C0062F10E0E15AF74F44915A
:1040E000F42FC42ED12C26E0829FC00111242FEF83
:1040F00030E0B9010E94A7215BEA5603C001579F37
:10410000900D11248E0D911D8E0D911D582F550F60
:10411000580FD901A01BB10BAC9DC001AD9D900DF6
:10412000BC9D900D1124E92FF59ED0011124AB2FD9
:10413000BB277901EA1AFB0AEC9CD001ED9CB00D7B
:10414000FC9CB00D11245901A51AB108A09E700164
:10415000A19EF00CB09EF00C1124EF2CFF242E1920
:104160003F092C9D80012D9D100D3C9D100D1124AB
:10417000212F6230710591F048F461157105E1F06D
:1041800061307105B9F4242F4B2F16C064307105CE
:1041900069F040F06630710579F00CC0242F492F8A
:1041A000E12F0AC0492FEF2F2B2F06C0292FE42F14
:1041B000412F02C0292FEB2F49832883EA83CDB7F3
:1041C000DEB7EAE00C94DF2111B887E080B985B34F
:1041D000836085BB86B7846086BF86B7816086BFF3
:1041E00086B7806486BF0895A0E0B0E0EAEFF0E211
:1041F0000C94C221B82EEB010E94B0166C01C431A0
:10420000D10558F0CF3F8FEFD80759F0CE0164E1C8
:1042100070E00E94A7217B0107C0EE24E394F12CFB
:1042200003C025E0E22EF12C84E8A82E94EA992E12
:1042300016BE96BE0E94B0168C0106B607FC07C0DB
:10424000C8010E949516E816F906B8F723C081B197
:10425000887F883039F081B1887F803119F00FEF85
:104260001FEF1AC0B3B8A6BE0E94B0168C0106B6E6
:1042700007FC07C0C8010E949516E816F906B8F7B2
:1042800009C081B1887F883111F0803441F700E0A6
:1042900010E00CC00EEF1FEFCF3F8FEFD80741F2B9
:1042A000C6010E949516C817D90710F6C801CDB7E8
:1042B000DEB7EBE00C94DE210F931F93CF93DF93D7
:1042C000EB0183B984E886BF0E94B0168C0106B664
:1042D00007FC0DC0CF3F8FEFD807C9F3C8010E947C
:1042E0009516C817D90798F78EEF9FEF0BC021B12D
:1042F000287F81E090E0283211F480E090E09195F1
:1043000081959109DF91CF911F910F910895A0E0C0
:10431000B0E0EDE8F1E20C94C5216B018A0179016E
:10432000B9010E94F420E6010C0D1D1DC017D10734
:1043300039F424E926BFCDB7DEB7E8E00C94E121DB
:1043400097FDF7CFB70189910E945C21EFCFAA1B9F
:10435000BB1B51E107C0AA1FBB1FA617B70710F070
:10436000A61BB70B881F991F5A95A9F780959095A2
:10437000BC01CD0108952F923F924F925F926F92B0
:104380007F928F929F92AF92BF92CF92DF92EF92E5
:10439000FF920F931F93CF93DF93CDB7DEB7CA1B66
:1043A000DB0B0FB6F894DEBF0FBECDBF09942A8891
:1043B000398848885F846E847D848C849B84AA8439
:1043C000B984C884DF80EE80FD800C811B81AA81C6
:1043D000B981CE0FD11D0FB6F894DEBF0FBECDBF91
:1043E000ED010895FB01DC0102C005900D924150E2
:1043F0005040D8F70895E199FECF9FBB8EBBE09A5D
:1044000099278DB30895A6E1B0E044E050E00C9404
:104410004122A8E1B0E042E050E00C944122262F76
:10442000E199FECF9FBB8EBBE09A01970DB20216B9
:1044300031F02DBB0FB6F894E29AE19A0FBE0895C1
:104440000396272F0E9410220E940F22252F0E94E0
:104450001022242F0C9410220196272F0E94102244
:104460000C940F22262FE199FECF9FBB8EBB2DBB54
:104470000FB6F894E29AE19A0FBE01960895DC0116
:10448000CB01FC01E199FECF06C0FFBBEEBBE09A79
:1044900031960DB20D9241505040B8F7089587FB08
:1044A000082E062687FD819567FD61950E947E2274
:1044B0000EF4919507FC8195089597FB072E16F44D
:1044C000009407D077FD09D00E94A72107FC05D0F2
:1044D0003EF4909581959F4F0895709561957F4F1B
:1044E0000895EE0FFF1F0590F491E02D09946927C0
:1044F000962769277827872778270895991B79E0D9
:1045000004C0991F961708F0961B881F7A95C9F763
:1045100080950895FC014150504030F001900616FE
:10452000D1F73197CF010895882799270895FB0186
:10453000DC0104C08D910190801921F4415050405C
:10454000C8F7881B990B0895FB01DC0102C001909C
:104550000D9241505040D8F70895DC0101C06D9391
:0C45600041505040E0F70895F894FFCF60
:10456C005212351651124F1250124E12AF0001FF5B
:10457C005A012FE99C35A007EA2B606162636465E0
:10458C00666790919293949596973736353433327B
:10459C0007000102020202060606090909090909B7
:0645AC000F0F0F0F0F0FAF
:00000001FF
